:020000040800F2
:1000000000000820E1400008C53F0008C73F000885
:10001000C93F0008CB3F0008CD3F000800000000AA
:10002000000000000000000000000000CF3F0008BA
:10003000D13F000800000000D33F0008D53F000872
:1000400031410008314100083141000831410008C8
:100050003141000831410008DD3F000885400008BB
:1000600031410008314100083141000831410008A8
:100070003141000831410008314100083141000898
:100080003141000831410008314100083141000888
:100090003141000831410008314100083141000878
:1000A0003141000831410008314100083141000868
:1000B0003141000831410008314100083141000858
:1000C0003141000831410008314100083141000848
:1000D0003141000831410008314100083141000838
:1000E0003141000831410008314100083141000828
:1000F0003141000831410008314100083141000818
:100100003141000831410008314100083141000807
:1001100031410008314100083141000831410008F7
:1001200031410008314100083141000831410008E7
:1001300031410008314100083141000831410008D7
:1001400031410008314100083141000831410008C7
:1001500031410008314100083141000831410008B7
:1001600031410008314100083141000831410008A7
:100170003141000831410008314100080000000011
:100180003141000831410008314100083141000887
:100190003141000831410008314100083141000877
:1001A0003141000831410008314100083141000867
:1001B0003141000831410008314100083141000857
:1001C00031410008314100080000000031410008C1
:1001D0003141000831410008314100083141000837
:1001E0003141000831410008314100083141000827
:0801F000314100083141000813
:1001F80010B5054C237833B9044B13B10448AFF359
:1002080000800123237010BD300000200000000092
:100218008C41000808B5034B1BB103490348AFF3F1
:10022800008008BD00000000340000208C41000858
:1002380053B94AB9002908BF00281CBF4FF0FF3145
:100248004FF0FF3000F072B9ADF1080C6DE904CE43
:1002580000F006F8DDF804E0DDE9022304B0704799
:100268002DE9F047089E04468846002B4BD18A4268
:10027800154667D9B2FA82F24AB1C2F1200701FAEB
:1002880002F320FA07F7954047EA030894404FEA3B
:10029800154E230CB8FBFEF71FFA85FC0EFB1788DA
:1002A80043EA084307FB0CF1994209D9EB1807F117
:1002B800FF3080F01B81994240F21881023F2B44A5
:1002C8005B1AA4B2B3FBFEF00EFB103344EA0344FE
:1002D80000FB0CFCA44509D92C1900F1FF3380F070
:1002E8000781A44540F2048102382C4440EA0740C3
:1002F800A4EB0C0400271EB1D4400023C6E9004338
:100308003946BDE8F0878B4209D9002E00F0EB8012
:100318000027C6E9000138463946BDE8F087B3FA38
:1003280083F7002F47D18B4202D3824200F2FA8032
:10033800841A61EB030301209846002EE0D0C6E939
:100348000048DDE702B9FFDEB2FA82F2002A40F087
:100358008F80491B4FEA154E1FFA85F80127B1FB1C
:10036800FEFC230C0EFB1C1143EA014308FB0CF1B5
:10037800994207D9EB180CF1FF3002D2994200F2EA
:10038800CD808446591AA3B2B1FBFEF00EFB1014BF
:1003980043EA044408FB00F8A04507D92C1900F1EA
:1003A800FF3302D2A04500F2B6801846A4EB080439
:1003B80040EA0C409FE7C7F1200CBB4022FA0CFE34
:1003C8004EEA030E01FA07F420FA0CF521FA0CF3B1
:1003D8004FEA1E482543B3FBF8F92C0C08FB1933E8
:1003E8001FFA8EFA44EA034309FB0AF49C4202FA14
:1003F80007F200FA07F10BD91EEB030309F1FF30EE
:1004080080F087809C4240F28480A9F102097344FD
:100418001B1BADB2B3FBF8F008FB103345EA0344ED
:1004280000FB0AFAA24508D91EEB040400F1FF33C9
:100438006BD2A24569D90238744440EA0940A0FB4E
:100448000289A4EB0A044C45C2464B4654D351D00A
:10045800002E69D0B1EB0A0564EB030404FA0CFC26
:10046800FD40FC404CEA0505C6E90054002747E773
:10047800C2F1200320FA03F7954001FA02F021FAAD
:1004880003F34FEA154E3843010CB3FBFEF71FFA8E
:1004980085F80EFB173341EA034107FB08F38B424B
:1004A80004FA02F407D9691807F1FF3C2FD28B42EE
:1004B8002DD9023F2944CB1A81B2B3FBFEF00EFBC3
:1004C800103341EA034100FB08F38B4207D969184E
:1004D80000F1FF3C17D28B4215D902382944C91ABA
:1004E80040EA07473BE73746304609E70746E7E66D
:1004F8001846FBE64145ABD2B8EB020A69EB0E029F
:1005080001381346A4E76046E9E7184695E76746C9
:10051800D1E781467CE702382C4447E7ACF1020C6E
:100528002B442FE7384608E73746E9E6704700BF0F
:1005380010B504460E4B18784FF47A73B3FBF0F3FA
:100548000C4A1068B0FBF3F000F098F868B90F2C6B
:1005580001D901200AE0002221464FF0FF3000F0C7
:100568004FF8034B5C60002000E0012010BD00BF85
:10057800000000202C00002008B5032000F02EF811
:100588000020FFF7D5FF03F0B1FB002008BD0000F5
:10059800034A1168034B1B780B441360704700BF74
:1005A8005C00002000000020014B1868704700BF65
:1005B8005C00002038B50446FFF7F6FF0546B4F1A5
:1005C800FF3F02D0044B1B781C44FFF7EDFF401B94
:1005D800A042FAD338BD00BF000000200649CB680E
:1005E80023F4E0631B041B0C000200F4E0600343E7
:1005F800024A1A43CA60704700ED00E00000FA059D
:1006080030B4154BDB68C3F30223C3F10704042C91
:1006180028BF04241D1D062D14D9033B4FF0FF35B8
:1006280005FA04F421EA0401994005FA03F322EAE1
:1006380003031943002807DB0901C9B2074B195402
:1006480030BC70470023E9E700F00F000901C9B288
:10065800034B1954F4E700BF00ED00E000E400E0AC
:1006680014ED00E000F01F02400901239340024A04
:1006780042F82030704700BF00E100E00138B0F1D7
:10068800807F0AD2064B5860064AF02182F8231070
:100698000020986007221A6070470120704700BF49
:1006A80010E000E000ED00E05079137943EA002300
:1006B80007480B50D07893781B0443EA00635078BE
:1006C80043EA002312781343024A8B50704700BF55
:1006D800408002404480024070B59EB0044629B173
:1006E8004FF40063C3604FF480438360E369002BD9
:1006F80068D14FF48063079321680B68374A1A4022
:10070800A368E06803430798034343F40073134363
:100718000B6023681D680120FFF74CFF23681D60EC
:10072800236840225A6023685D680120FFF742FF72
:1007380023685D60236800259D602368DD6022686A
:10074800936923F0BE031B041B0C43F080039361E1
:1007580023689E690120FFF72DFF23689E612368A7
:10076800DD612368DD690120FFF724FF2368DD616F
:10077800216841F218054B59194A1A40194B13437D
:100788004B5123685E590120FFF714FF23685E511F
:10079800236803F58053144A1A60236803F58053CD
:1007A8001D680120FFF706FF236803F580531D60CD
:1007B800A369012B09D0626900212046FFF774FF65
:1007C8001EB070BD0023079396E7216841F21C0212
:1007D8008858064B03438B50EDE700BF0F8120FF7D
:1007E800233FDEF8040020028020C10240000100FF
:1007F800F8B590F84430DBB2822B33D01646054664
:10080800822380F844300268136903F01C03048AC9
:10081800E402A4B223438C0104F4F8641C4344F0BA
:1008280001041461FFF7C0FE074614F0010F10D051
:10083800FFF7BAFEC01BB0F5803F02D22B681C69D7
:10084800F3E7012385F84430002385F84530032079
:1008580007E02B685B699BB23360012385F844305D
:100868000020F8BD0220FCE790F84430DBB2422BB0
:1008780032D070B50546422380F8443000680369D9
:1008880003F01C032C8AE402A4B223438C0104F471
:10089800F8641C4344F0030492B242612B681C6163
:1008A800FFF782FE064614F0010F10D0FFF77CFE1A
:1008B800801BB0F5803F02D22B681C69F3E7012347
:1008C80085F84430002385F84530032003E00123F0
:1008D80085F84430002070BD0220704770B582B0A2
:1008E80000230193002800F00C81044690F844305E
:1008F800002B32D0844B5A6C42F480425A645B6CB1
:1009080003F480430093009B804B5A6822F4000252
:100918005A605A68216A0A435A60236803F580536B
:100928001A6842F001021A60FFF73EFE0546236886
:1009380003F58052126812F0010F13D0FFF734FE4E
:10094800401BB0F5FA7FF2D9032584F84450002300
:1009580084F84530284602B070BD80F8453003F071
:10096800DDF9C7E71D6925F01C0500F0CFFD684BD0
:100978000344684A934255D845F0080523681D6129
:100988004FF4004200212046FFF76EFF054600287D
:1009980060D1FF20FFF70EFE6368002B00F0918006
:1009A800FFF702FE064601AA01212046FFF720FFB5
:1009B800FFF7FAFD801B41F28833984252D8019B19
:1009C80013F0040FEFD04FF4805200212046FFF7B8
:1009D8004BFF002852D1FFF7E7FD064601AA012187
:1009E8002046FFF705FFFFF7DFFD801B41F2883344
:1009F80098424BD8019B13F0200FEFD001AA102189
:100A08002046FFF7F5FE00284CD1019B13F0040F98
:100A180050D04FF40062E26013F0020F4DD0002373
:100A2800A3605EE03C4B03443C4A934202D845F045
:100A38000C05A3E73A4B03443A4A93429ED93A4BF2
:100A480003443A4A934202D845F0040596E745F034
:100A5800100593E701212046FFF73EFE012584F8A3
:100A6800445077E701212046FFF736FE012384F83A
:100A78004430002384F8453003256BE701212046E4
:100A8800FFF72AFE012584F8445063E70121204638
:100A9800FFF722FE012384F84430002384F8453010
:100AA800032557E701212046FFF716FE012584F8A4
:100AB80044504FE70022E260AEE74FF48043A36062
:100AC8000FE0E268C2F3CF02A368C3F34F031A43EF
:100AD80000212046FFF7C8FE58B940F6FF70FFF71F
:100AE80069FD00212046FFF7F7FD012384F8443013
:100AF80030E701212046FFF7EFFD012584F8445037
:100B080028E7012526E700BF0038024000380140E9
:100B180000D3CEFEBFE1E40040F1E9FD3F787D015E
:100B280000796CFCFF596202001F0AFA7FF0FA0292
:100B380000230F2B00F2E280F0B482B039E00922E2
:100B480000E00022B2403A4302346D4E46F82420B9
:100B58006C4A1468EA4302EA04064F6817F4803FB7
:100B680001D045EA0406674C2660646802EA040678
:100B78004F6817F4003F01D045EA0406614C6660EF
:100B8800A46802EA04064F6817F4801F01D045EAFA
:100B980004065C4CA660E46822404E6816F4001F08
:100BA80001D045EA0402574CE26001330F2B00F2F2
:100BB800A28001229A400C6804EA0205AA42F4D1F4
:100BC8004C68122C18BF022C10D1DE08083650F8D9
:100BD80026C003F00704A7000F24BC402CEA040C2D
:100BE8000C69BC4044EA0C0440F8264004685F00E5
:100BF8000326BE40F64306EA040C4C6804F00304DE
:100C0800BC4044EA0C0404604C6804F1FF3C112C1D
:100C180018BFBCF1010F01D9122C11D1846806EA62
:100C2800040CCC68BC4044EA0C048460446824EAA0
:100C3800020C4C68C4F300129A4042EA0C0242606B
:100C4800C26816408A68BA403243C2604A6812F0E5
:100C5800805FAAD02C4A546C44F480445464526C8B
:100C680002F480420192019A9C08A61C244A52F878
:100C7800267003F0030296000F22B24027EA02070B
:100C8800224A90423FF45DAF02F58062904222D042
:100C980002F58062904220D002F5806290421ED018
:100CA80002F5806290421CD002F5806290421AD010
:100CB80002F58062904218D002F58062904216D008
:100CC80002F58062904214D002F5806290423FF4AF
:100CD80036AF0A2236E7012234E7022232E703223E
:100CE80030E704222EE705222CE706222AE707220E
:100CF80028E7082226E702B0F0BC7047704700BF1B
:100D080000380140003C0140003802400000024029
:100D180012B909048161704781617047436959407C
:100D2800416170477047000008B5054B5B69034295
:100D380000D108BD024B5861FFF7F4FFF9E700BF87
:100D4800003C014000287DD0F0B58BB0044690F8F7
:100D5800BD33E3B1032384F8BD33206801F02CFED2
:100D6800254655F8107B6E460FCD0FC60FCD0FC622
:100D780095E8030086E80300231D0ECB384601F0F2
:100D8800DDFD0021206801F01DFE00231AE080F837
:100D9800BC3303F0CBF8DDE7D900C81A820022443F
:100DA800012082F83D0082F83C30A2F84230002051
:100DB80082F83F0050649064CA1A91002144086583
:100DC8000133DBB20E2BE7D9002315E0D800C11A96
:100DD8008A002244002182F8FD1182F8FC3182F851
:100DE800FF11C2F80412C2F80812C21A9000204477
:100DF800C0F810120133DBB20E2BE7D9254655F89F
:100E0800107B6E460FCD0FC60FCD0FC695E80300B9
:100E180086E80300231D0ECB384601F019FE002397
:100E280084F83830012384F8BD33636A012B05D078
:100E3800206801F0DFFE00200BB0F0BD204600F076
:100E480003F8F5E701207047024603680121C0F85E
:100E5800F813002082F8F0039A6942F000629A6160
:100E6800596D024A0A435A65704700BF03000010D3
:100E7800024A136843F4807313607047007000409F
:100E880010B582B01B4B1A6C42F080521A641B6C6E
:100E980003F080530193019B174A136843F480338E
:100EA8001360FFF781FB0446134B5B6813F4803F24
:100EB80008D1FFF779FB001BB0F57A7FF4D903203E
:100EC80002B010BD0C4A136843F400331360FFF7F7
:100ED8006BFB0446084B5B6813F4003F07D1FFF730
:100EE80063FB001BB0F57A7FF4D90320E8E7002004
:100EF800E6E700BF0038024000700040002800F01C
:100F0800DC8170B582B00446036813F0010F29D064
:100F1800A24B9B6803F00C03042B1AD09F4B9B68D1
:100F280003F00C03082B0FD06368B3F5803F40D063
:100F3800002B54D1994B1A6822F480321A601A682F
:100F480022F480221A6039E0944B5B6813F4800F16
:100F5800EAD0924B1B6813F4003F03D06368002B60
:100F680000F0AD81236813F0020F75D08B4B9B689E
:100F780013F00C0F5ED0894B9B6803F00C03082B11
:100F880053D0E368002B00F08A80844A136843F04A
:100F980001031360FFF708FB0546804B1B6813F03D
:100FA800020F73D1FFF700FB401B0228F5D903207D
:100FB80088E17A4A136843F48033136063682BB37B
:100FC800FFF7F2FA0546754B1B6813F4003FC9D1C9
:100FD800FFF7EAFA401B6428F5D9032072E1B3F55C
:100FE800A02F09D06D4B1A6822F480321A601A6853
:100FF80022F480221A60E1E7684B1A6842F48022E2
:101008001A601A6842F480321A60D7E7FFF7CCFA00
:101018000546624B1B6813F4003FA3D0FFF7C4FAE0
:10102800401B6428F5D903204CE15C4B5B6813F442
:10103800800FA6D1594B1B6813F0020F04D0E36848
:10104800012B01D001203DE1544A136823F0F80335
:10105800216943EAC1031360236813F0080F46D0DF
:10106800636983B34D4A536F43F001035367FFF736
:101078009BFA0546494B5B6F13F0020F37D1FFF718
:1010880093FA401B0228F5D903201BE1434A136851
:1010980023F0F803216943EAC1031360DCE73F4A00
:1010A800136823F001031360FFF77EFA05463B4BF4
:1010B8001B6813F0020FCFD0FFF776FA401B022807
:1010C800F5D90320FEE0354A536F23F00103536737
:1010D800FFF76AFA0546314B5B6F13F0020F06D033
:1010E800FFF762FA401B0228F5D90320EAE02368DB
:1010F80013F0040F7ED0294B1B6C13F0805F1ED1B8
:10110800264B1A6C42F080521A641B6C03F0805311
:101118000193019B0125224B1B6813F4807F10D09B
:10112800A368012B21D0002B3CD11C4B1A6F22F055
:1011380001021A671A6F22F004021A671AE00025E2
:10114800E9E7174A136843F480731360FFF72CFA32
:101158000646134B1B6813F4807FE1D1FFF724FA8E
:10116800801B6428F5D90320ACE00C4A136F43F0C8
:1011780001031367A3685BB3FFF716FA0646074B2C
:101188001B6F13F0020F34D1FFF70EFA801B41F2E8
:1011980088339842F3D9032094E000BF0038024016
:1011A80000700040052B09D0484B1A6F22F001024D
:1011B8001A671A6F22F004021A67DBE7434B1A6FAB
:1011C80042F004021A671A6F42F001021A67D1E767
:1011D800FFF7EAF906463D4B1B6F13F0020F08D0E4
:1011E800FFF7E2F9801B41F288339842F3D90320D4
:1011F80068E0F5B9A369002B63D0344A926802F01D
:101208000C02082A60D0022B19D0304A136823F048
:1012180080731360FFF7C8F904462C4B1B6813F062
:10122800007F48D0FFF7C0F9001B0228F5D903203A
:1012380048E0264A136C23F080531364DAE7234A04
:10124800136823F080731360FFF7AEF905461F4B50
:101258001B6813F0007F06D0FFF7A6F9401B022891
:10126800F5D903202EE0E369226A1343626A43EA50
:101278008213A26A5208013A43EA0243E26A43EA45
:101288000263226B43EA0273104A5360136843F007
:1012980080731360FFF788F904460C4B1B6813F042
:1012A800007F06D1FFF780F9001B0228F5D903203B
:1012B80008E0002006E0002004E00120704701203B
:1012C80000E0002002B070BD0120FBE700380240BA
:1012D800324B9B6803F00C03042B5CD0082B01D025
:1012E8002F4870472DE9F04B2C4B5A6802F03F020B
:1012F8005B6813F4800F2BD0284B5B68C3F388130B
:101308001E4600275C010025E41A65EB0705A901C4
:1013180041EA9461A001001B61EB0501CB0043EA9F
:101328005073C400A01943EB07014B0243EAD053A2
:101338004402204619460023FEF77AFF174B5B68E4
:10134800C3F3014301335B00B0FBF3F0BDE8F08B5E
:10135800124B5B68C3F388131E4600275C01002507
:10136800E41A65EB0705A90141EA9461A001001B95
:1013780061EB0501CB0043EA5073C400A01943EBAD
:1013880007018B0243EA9053840220461946002342
:10139800FEF74EFFD2E70348704700BF003802400F
:1013A8000024F40000127A00002800F0A28070B532
:1013B8000446524B1B6803F00F038B420CD24F4A72
:1013C800136823F00F030B431360136803F00F0334
:1013D8008B4201D0012070BD236813F0020F17D093
:1013E80013F0040F04D0464A936843F4E053936023
:1013F800236813F0080F04D0414A936843F460430C
:1014080093603F4A936823F0F003A0680343936016
:101418000D46236813F0010F31D06368012B20D0EB
:10142800022B25D0364A126812F0020F63D03449D5
:101438008A6822F0030213438B60FFF7B5F806466B
:101448002F4B9B6803F00C036268B3EB820F16D036
:10145800FFF7AAF8801B41F288339842F0D903209D
:10146800B9E7274A126812F4003FE0D10120B2E739
:10147800234A126812F0007FD9D10120ABE71F4B35
:101488001B6803F00F03AB420CD91C4A136823F006
:101498000F032B431360136803F00F03AB4201D013
:1014A800012098E7236813F0040F06D0144A9368C4
:1014B80023F4E053E1680B439360236813F0080FAB
:1014C80007D00F4A936823F46043216943EAC103B4
:1014D8009360FFF7FDFE0A4B9B68C3F30313094AA9
:1014E800D35CD840084B18600020FFF721F8002093
:1014F80071E70120704701206DE700BF003C024002
:1015080000380240A45900082C000020014B18683C
:10151800704700BF2C00002008B5FFF7F7FF044B09
:101528009B68C3F38223034AD35CD84008BD00BF3D
:1015380000380240B459000808B5FFF7E7FF044B2C
:101548009B68C3F34233034AD35CD84008BD00BF4D
:1015580000380240B4590008F0B583B00446036867
:1015680013F0010F0CD0B54B9A6822F400029A6070
:101578009A68416B0A439A60436BC3B1002600E046
:101588000026236813F4002F15D0AC4AD2F88C300B
:1015980023F44013E16B0B43C2F88C30E36BB3F5D3
:1015A800801F06D0002B00F04581002504E00126AD
:1015B800E7E70126F6E70025236813F4801F0FD01C
:1015C8009E4AD2F88C3023F44003216C0B43C2F8B6
:1015D8008C30236CB3F5800F00F02E8103B9012500
:1015E800236813F0807F00D0012613F0200F40F00D
:1015F8002781236813F0100F0CD0904BD3F88C2060
:1016080022F08072C3F88C20D3F88C20A16B0A4397
:10161800C3F88C20236813F4804F08D0874AD2F887
:10162800903023F44033616E0B43C2F89030236846
:1016380013F4004F08D0814AD2F8903023F44023A5
:10164800A16E0B43C2F89030236813F4803F08D092
:101658007A4AD2F8903023F44013E16E0B43C2F873
:101668009030236813F4003F08D0744AD2F89030C1
:1016780023F44003216F0B43C2F89030236813F022
:10168800400F08D06D4AD2F8903023F00303616C04
:101698000B43C2F89030236813F0800F08D0674AD4
:1016A800D2F8903023F00C03A16C0B43C2F89030B1
:1016B800236813F4807F08D0604AD2F8903023F072
:1016C8003003E16C0B43C2F89030236813F4007FB9
:1016D80008D05A4AD2F8903023F0C003216D0B434A
:1016E800C2F89030236813F4806F08D0534AD2F8B8
:1016F800903023F44073616D0B43C2F89030236837
:1017080013F4006F08D04D4AD2F8903023F44063A8
:10171800A16D0B43C2F89030236813F4805F08D0A2
:10172800464AD2F8903023F44053E16D0B43C2F897
:101738009030236813F4005F08D0404AD2F8903004
:1017480023F44043216E0B43C2F89030236813F40E
:10175800800F08D0394AD2F8903023F08063A16F07
:101768000B43C2F89030236813F4001F0DD0334A9E
:10177800D2F8903023F00063E16F0B43C2F8903049
:10178800E36FB3F1006F00F0C180236813F0080F16
:1017980000D0012513F4802F08D0284AD2F89030C1
:1017A80023F04073616F0B43C2F89030236813F441
:1017B800000F09D0214AD2F8903023F08053D4F892
:1017C80080100B43C2F89030236813F0806F09D063
:1017D8001A4AD2F8903023F00053D4F884100B43FF
:1017E800C2F89030236813F0006F09D0134AD2F87A
:1017F8008C3023F00073D4F888100B43C2F88C3077
:10180800236813F0805F09D00C4AD2F88C3023F09B
:101818008063D4F88C100B43C2F88C30002E77D13B
:101828002368B3F1007F73D0002D40F004810020BD
:1018380003B0F0BD0125BFE60126CFE6003802401F
:10184800B74B1A6C42F080521A641B6C03F0805339
:101858000193019BB34A136843F480731360FEF746
:10186800A3FE0746AF4B1B6813F4807F06D1FEF733
:101878009BFEC01B6428F5D90320D9E7A84B1B6F32
:1018880013F4407315D0226B02F440729A4210D0C0
:10189800A34B1A6F22F44072196F41F48031196713
:1018A800196F21F4803119671A671B6F13F0010F44
:1018B80012D1236B03F44072B2F5407F1DD0984AD1
:1018C800936823F4F813936095490B6F226BC2F366
:1018D8000B0213430B678CE6FEF766FE0746904B38
:1018E8001B6F13F0020FE4D1FEF75EFEC01B41F23E
:1018F80088339842F3D903209AE78948826822F40A
:10190800F812894919400A438260DDE701253CE75E
:10191800834A136823F080631360FEF745FE06468A
:101928007F4B1B6813F0006F06D0FEF73DFE801B4F
:101938006428F5D903207BE7236813F0010F13D03F
:10194800636B8BB9764AD2F88430D2F88410606819
:1019580003F4403343EA801301F070610B43A1683C
:1019680043EA0173C2F88430236813F4002F03D0CC
:10197800E26BB2F5801F06D013F4801F1ED0236CD3
:10198800B3F5800F1AD1664AD2F88430D2F88410A1
:10199800606803F4403343EA8013E06843EA006375
:1019A80001F0E0410B43C2F88430D2F88C3023F0C8
:1019B8001F03616A01390B43C2F88C30236813F0A6
:1019C800807F11D0564AD2F88400D2F88410666815
:1019D80023691B0443EA861300F07060034301F097
:1019E800E0410B43C2F88430236813F0007F0DD028
:1019F800626823691B0443EA8213E26843EA0263CC
:101A0800A26843EA0273464AC2F88430444A13681B
:101A180043F080631360FEF7C7FD0646404B1B6822
:101A280013F0006F7FF400AFFEF7BEFD801B642843
:101A3800F4D90320FCE63A4A136823F08053136074
:101A4800FEF7B2FD0546364B1B6813F0005F06D063
:101A5800FEF7AAFD401B6428F5D90320E8E62368B1
:101A680013F4002F01D0E26B22B113F4801F1DD0B4
:101A7800236CDBB92A4AD2F88830D2F8881060691A
:101A880003F4403343EA8013A06943EA006301F09A
:101A9800E0410B43C2F88830D2F88C3023F4F85375
:101AA800A16A013943EA0123C2F88C30236813F490
:101AB800001F03D0E36FB3F1006F37D0236813F032
:101AC800080F19D0164AD2F88810D2F88830606901
:101AD80003F4403343EA801301F070610B43E1697A
:101AE80043EA0173C2F88830D2F88C3023F44033CB
:101AF800E16A0B43C2F88C30094A136843F08053FB
:101B08001360FEF751FD0446054B1B6813F0005F98
:101B18001FD1FEF749FD001B6428F5D9032087E68D
:101B28000038024000700040FFFCFF0F0A4AD2F85C
:101B38008800D2F888106569236A1B0443EA851374
:101B480000F07060034301F0E0410B43C2F88830B5
:101B5800B4E700206CE600BF00380240F8B505463F
:101B68000F4616461C462B689B683B40B34238D04C
:101B7800B4F1FF3FF7D02CB1FEF716FD069BC01A53
:101B8800A042F0D32A68536823F0E00353606B68DF
:101B9800B3F5827F0BD0AB6AB3F5005F14D0012395
:101BA80085F85D30002385F85C3003201AE0AB68C7
:101BB800B3F5806F18BFB3F5004FECD12A681368EE
:101BC80023F040031360E6E72A68136823F4005300
:101BD8001B041B0C13602A68136843F4005313603A
:101BE800DDE70020F8BDF0B583B007460D46144682
:101BF8001E4602E0B6F1FF3F10D13A6893682B40C9
:101C0800A34241D0B5F5C06F08BF002CF2D1137BB9
:101C1800DBB28DF807309DF80730EBE72EB1FEF701
:101C2800C3FC089BC01AB042E7D33A68536823F054
:101C3800E00353607B68B3F5827F0BD0BB6AB3F5D2
:101C4800005F14D0012387F85D30002387F85C30EB
:101C580003201AE0BB68B3F5806F18BFB3F5004FD7
:101C6800ECD13A68136823F040031360E6E73A685A
:101C7800136823F400531B041B0C13603A681368A1
:101C880043F400531360DDE7002003B0F0BD70B5E6
:101C980082B004460D46164600920B4600224FF4C9
:101CA800C051FFF7A0FFB8B900962B46002280214B
:101CB8002046FFF753FFB8B900962B4600224FF491
:101CC800C0612046FFF78FFF034650B1236E43F0F3
:101CD80020032366032304E0236E43F020032366D6
:101CE8000323184602B070BD236E43F02003236619
:101CF8000323F6E770B582B004460D4616464368DE
:101D0800B3F5827F0FD000962B4600228021204613
:101D1800FFF724FF034698B96268B2F5827F15D0B1
:101D2800184602B070BD8368B3F5806F18BFB3F56D
:101D3800004FE8D10268136823F040031360E2E71C
:101D4800236E43F0200323660323E9E7A268B2F574
:101D5800806F18BFB2F5004FE2D100962B460022E3
:101D68004FF4C0612046FFF73EFF03460028D7D056
:101D7800236E43F0200323660323D1E7002858D0BD
:101D880010B504460023836290F85D30002B45D0DF
:101D9800022384F85D302268136823F0400313603F
:101DA800E368B3F5E06F3ED90022B3F5706F18BF52
:101DB800B3F5E06F01D00021A162216B21B9B3F521
:101DC800E06F33D9022323636368A1680B43216959
:101DD8000B4361690B43A16901F400710B43E1698D
:101DE8000B43216A0B43A06A216803430B60638B92
:101DF80003F00403616A0B43616B0B43E1680B4317
:101E0800216813434B602268D36923F40063D361CC
:101E180000202066012384F85D3010BD80F85C3016
:101E280002F004F8B4E74FF48052BEE701232363BD
:101E3800CAE7012070472DE9F04182B01E4690F8AC
:101E48005C30012B00F0AC8004460D46904601231F
:101E580080F85C30FEF7A8FB074694F85D30DBB2EB
:101E6800012B09D00220012384F85D30002384F877
:101E78005C3002B0BDE8F081B8FA88F35B09002D48
:101E880008BF0123002B40F08380032384F85D30D2
:101E980000232366A563A4F83C80A4F83E8023644D
:101EA800A4F84430A4F846302365E364A368B3F586
:101EB800004F0DD023681A6812F0400F03D11A683A
:101EC80042F040021A60E368B3F5E06F0BD82FE0E8
:101ED8002268136843F480431360EBE7002E59D05F
:101EE800B6F1FF3F10D1E38F9BB2002B3BD02368A4
:101EF8009A6812F0020FF1D035F8022BDA60E38FFE
:101F0800013B9BB2E387EEE7FEF74EFBC01BB042F6
:101F1800E9D30320A7E72A781A73E38F013B9BB222
:101F2800E387013504E0002E36D0B6F1FF3F13D128
:101F3800E38F9BB2BBB123689A6812F0020FF2D00C
:101F4800E28F92B2012AE6D935F8022BDA60E38FE4
:101F5800023B9BB2E387EBE7FEF726FBC01BB042D0
:101F6800E6D303207FE73A4631462046FFF78FFE47
:101F780008B120232366A36833B901932368DA687C
:101F880001929B680193019B236E3BB900206AE78D
:101F9800012068E7032066E7032064E7012062E781
:101FA800022066E72DE9F8439846089D90F85C30D2
:101FB800012B00F0438104460F461646012380F8A2
:101FC8005C30FEF7F1FA814694F85D30DBB2626866
:101FD800012B13D0B2F5827F08D00220012384F8A8
:101FE8005D30002384F85C30BDE8F883A268002ADD
:101FF80040F01C81042B01D00220EFE7B6FA86F3EB
:102008005B09002F08BF0123002B40F01181B8F1B4
:10201800000F00F00F8194F85D30DBB2042B02D082
:10202800052384F85D30002323662664A4F84680DF
:10203800A4F84480A763A4F83E80A4F83C80E36435
:102048002365E368B3F5E06F04D8B4F846309BB273
:10205800012B22D92268536823F4805353602368E4
:102068001A6812F0400F03D11A6842F040021A6051
:10207800E368B3F5E06F54D963681BB1E38F9BB293
:10208800012B07D1236837F8022BDA60E38F013B75
:102098009BB2E3874FF001081CE02268536843F4C1
:1020A80080535360DBE7B4F846309BB27BB12368BA
:1020B8009A6812F0010F0AD0DB6826F8023BB4F8E0
:1020C8004630013B9BB2A4F846304FF00108B5F109
:1020D800FF3F1ED1E38F9BB22BB9B4F846309BB2B9
:1020E800002B00F09780B8F1000FDCD0E38F9BB293
:1020F800002BD8D023689A6812F0020FD3D037F893
:10210800022BDA60E38F013B9BB2E3874FF00008B4
:10211800C9E7FEF749FAA0EB0900A842DAD3032081
:102128005CE763681BB1E38F9BB2012B07D123687F
:1021380017F8012B1A73E38F013B9BB2E3874FF02B
:10214800010829E03A781A73E38F013B9BB2E387D1
:1021580001374FF00008B4F846309BB2CBB1236882
:102168009A6812F0010F14D0B4F8462092B2012AEE
:102178003CD9DB6826F8023BB4F84630023B9BB2F8
:10218800A4F84630B4F846309BB2012B26D94FF05C
:102198000108B5F1FF3F35D1E38F9BB223B9B4F8FD
:1021A80046309BB2002B35D0B8F1000FD3D0E38F67
:1021B8009BB2002BCFD023689A6812F0020FCAD0C6
:1021C800E28F92B2012ABDD937F8022BDA60E38F89
:1021D800023B9BB2E3874FF00008BCE722685368D4
:1021E80043F4805353604FF00108D2E71B7B3370F0
:1021F800B4F84630013B9BB2A4F8463001364FF0A4
:102208000108C6E7FEF7D0F9A0EB0900A842C3D33E
:102218000320E3E64A4629462046FFF738FD08B181
:1022280020232366236E3BB90020D7E60220D5E69B
:102238000120D3E60120D1E60120CFE60220D3E633
:102248002DE9F04182B004460D4690461E4643688B
:10225800B3F5827F19D094F85C30012B00F0B08080
:10226800012384F85C30FEF79FF9074694F85D3047
:10227800DBB2012B15D00220012384F85D30002346
:1022880084F85C3002B0BDE8F0818368002BE2D1AD
:10229800042380F85D30009613460A46FFF782FE55
:1022A800F0E7B8FA88F35B09002D08BF0123002B7B
:1022B8007ED1042384F85D30002323662564A4F8C6
:1022C8004480A4F84680A363A387E387E364236577
:1022D800E368B3F5E06F16D92268536823F4805396
:1022E8005360A368B3F5004F13D023681A6812F03F
:1022F800400F03D11A6842F040021A60E368B3F550
:10230800E06F11D92EE02268536843F4805353607C
:10231800E7E72268136823F480431360E5E7002E9B
:1023280048D0B6F1FF3F12D1B4F846309BB29BB308
:1023380023689A6812F0010FF1D01B7B05F8013B66
:10234800B4F84630013B9BB2A4F84630ECE7FEF700
:102358002BF9C01BB042E7D303208DE766B3B6F173
:10236800FF3F12D1B4F846309BB2ABB123689A68EC
:1023780012F0010FF2D0DB6825F8023BB4F84630C2
:10238800013B9BB2A4F84630ECE7FEF70DF9C01B01
:10239800B042E7D303206FE73A4631462046FFF7BD
:1023A800A9FC08B120232366236E3BB9002063E70C
:1023B800012061E703205FE703205DE701205BE779
:1023C80002205FE790F85D0070472DE9F04105466F
:1023D8000F4616469846069C2B68DB6937EA0303C6
:1023E8000CBF01230023B3421DD1B4F1FF3FF3D04A
:1023F8002CB1FEF7D9F8A0EB0800A042ECD32A686C
:10240800136823F4D07313602A68936823F00103D8
:102418009360202385F8693085F86A30002385F8B1
:102428006830032000E00020BDE8F08110B50446C4
:1024380083680269134342691343C26913430168FD
:1024480008689D4A024013430B602268536823F4CE
:102458004053E1680B435360A369226A1A43216819
:102468008B6823F4306313438B602368934A934249
:1024780019D0934A93422AD0924A934240D0924A22
:10248800934255D0914A93426AD0914A934200F0C0
:102498008280904A934200F099808F4A934200F0DC
:1024A800B0801022C9E002F59432D2F8902002F0F0
:1024B8000302032A03D8DFE802F0BF06040810224B
:1024C800BBE00222B9E00422B7E00822B5E002F539
:1024D800FA32D2F8902002F00C020C2A08D8DFE871
:1024E80002F0BA0707070B070707090707070D00D8
:1024F8001022A2E00222A0E004229EE008229CE032
:1025080002F5F832D2F8902002F03002102A0DD0ED
:1025180005D9202A08D0302A04D108228DE00AB92A
:1025280000228AE0102288E0022286E0042284E069
:1025380002F5F632D2F8902002F0C002402A0DD0FF
:1025480005D9802A08D0C02A04D1082275E00AB922
:10255800002272E0102270E002226EE004226CE099
:1025680002F5F432D2F8902002F44072B2F5807F7E
:102578000FD007D9B2F5007F09D0B2F5407F04D15A
:1025880008225AE00AB9002257E0102255E0022238
:1025980053E0042251E002F59232D2F8902002F47E
:1025A8004062B2F5806F0FD007D9B2F5006F09D03D
:1025B800B2F5406F04D108223FE00AB901223CE09D
:1025C80010223AE0022238E0042236E002F5E03236
:1025D800D2F8902002F44052B2F5805F0FD007D9AC
:1025E800B2F5005F09D0B2F5405F04D1082224E0BB
:1025F8000AB9002221E010221FE002221DE0042275
:102608001BE002F5DE32D2F8902002F44042B2F527
:10261800804F0FD007D9B2F5004F09D0B2F5404F1F
:1026280004D1082209E00AB9002206E0102204E0D9
:10263800022202E0042200E00122E169B1F5004F24
:102648000BD0082A00F29B80DFE802F0616D7999CF
:10265800839999998F000022EFE7082A54D8DFE878
:1026680002F0051722533F5353534A00FEF754FF15
:102678006268530803EB4003B3FBF2F39BB20020FC
:1026880023F00F02C3F3420313432268D36010BD43
:10269800FEF752FF6268530803EB4003B3FBF2F303
:1026A8009BB20020ECE762680C4B03EB5203B3FBD0
:1026B800F2F39BB20020E3E7F369FFEF001001405B
:1026C8000044004000480040004C004000500040DA
:1026D8000014014000780040007C00400048E801F8
:1026E800FEF7F6FD6268530803EB4003B3FBF2F311
:1026F8009BB20020C4E76268530803F58033B3FB3C
:10270800F2F39BB20020BBE701200023B8E7FEF7F5
:1027180003FF636800EB5300B0FBF3F0236880B25B
:10272800D8600020B3E7FEF707FF636800EB5300AB
:10273800B0FBF3F0236880B2D8600020A7E7616897
:10274800104A02EB5102B2FBF1F292B2DA600020B9
:102758009DE7FEF7BDFD636800EB5300B0FBF3F0A7
:10276800236880B2D860002091E761684A0802F5C2
:102778000042B2FBF1F292B2DA60002087E7012052
:1027880085E700BF0024F400436A13F0010F06D068
:102798000268536823F40033816A0B435360436A29
:1027A80013F0020F06D00268536823F48033C16A1D
:1027B8000B435360436A13F0040F06D00268536852
:1027C80023F48023016B0B435360436A13F0080F13
:1027D80006D00268536823F40043416B0B435360EF
:1027E800436A13F0100F06D00268936823F48053ED
:1027F800816B0B439360436A13F0200F06D0026885
:10280800936823F40053C16B0B439360436A13F03E
:10281800400F0AD00268536823F48013016C0B43FD
:102828005360036CB3F5801F0BD0436A13F0800F1D
:1028380006D00268536823F40023816C0B4353606D
:1028480070470268536823F4C003416C0B4353601C
:10285800EBE710B582B004460023C366FDF7A4FE7B
:102868002268126812F0080F09D1202384F8693011
:1028780084F86A30002084F8680002B010BD6FF058
:102888007E430093034600224FF400112046FFF7D1
:102898009CFD0028E9D00320EFE778B310B5044683
:1028A80090F869300BB3242384F8693022681368E0
:1028B80023F0010313602046FFF7B8FD012813D069
:1028C800636ABBB92268536823F490435360226853
:1028D800936823F02A0393602268136843F0010386
:1028E80013602046FFF7B5FF10BD80F8683001F08F
:1028F800E7FAD8E72046FFF747FFE3E701207047EC
:10290800002301330C4A934211D80269002AF8DAED
:10291800036943F00103036100230133064A93422C
:1029280007D8026912F0010FF7D100207047032081
:1029380070470320704700BF400D030084B010B5F6
:10294800044603A880E80E00089B012B1ED1A36B48
:1029580023F48033A363E268164B1340E360E36813
:1029680023F44013E3600F9B012B0AD02046FFF7A6
:10297800C7FF069B012B14D00020BDE8104004B00F
:102988007047E36843F48013E360EFE7E36843F0DC
:102998004003E3602046FFF7B3FF4FF48033A3639F
:1029A800E7E7A36843F00603A360A36843F02003A6
:1029B800A360E1E7BFFFBDFF836823F001038360E5
:1029C8000020704708B5C36823F0C043C3600129DD
:1029D80009D069B9C36843F08043C3603220FDF76A
:1029E800E9FD002008BDC36843F00053C360F5E764
:1029F8000120F7E7890141F020010161002301333B
:102A0800054A934205D8026912F0200FF7D1002039
:102A180070470320704700BF400D03001023036177
:102A280000230133054A934205D8026912F0100FBA
:102A3800F7D1002070470320704700BF400D030006
:102A4800D0F800381943C0F800180020704700007B
:102A580084B0F8B5044607A880E80E002546002390
:102A680006E003F1400204EB8202002151600133C9
:102A78000E2BF6D9A36B43F40013A363119F5FB920
:102A8800A36B23F40013A363236843F0400323607C
:102A9800236843F0800323600023C4F8003E04F554
:102AA8000066D4F80038C4F800380C9B012B08D015
:102AB800032B17D1099B83B900212046FFF7C0FFDC
:102AC80014E0099B23B900212046FFF7B9FF0DE068
:102AD80001212046FFF7B4FF08E001212046FFF757
:102AE800AFFF03E003212046FFF7AAFF102120468D
:102AF800FFF780FF2046FFF791FF002333617361E2
:102B0800F3610AE0C3B94FF00060C2F8000900227F
:102B18000A614FF67F328A6001330799994210D9CA
:102B280005EB431202F51061D2F800090028E9DB31
:102B38000020C2F80009EAE74FF09040C2F8000907
:102B4800E5E700230AE0CBB14FF0904CC2F800CB88
:102B5800002202614FF67F3282600133994212D916
:102B680005EB431202F53060D2F800CBBCF1000F40
:102B7800E9DB4FF0000CC2F800CBE9E74FF0006C3E
:102B8800C2F800CBE4E7336923F4807333610A9B0E
:102B9800012B1AD00022A2616FF0804262611BB93A
:102BA800A36943F01003A361A2690E4B1343A36109
:102BB8000D9B1BB1A36943F00803A361012F0BD040
:102BC8000020BDE8F84004B07047074A3263316B13
:102BD800064A0A433263DDE7A269054B1343A36142
:102BE800EEE700BF00383C800001800003000100D0
:102BF8000400004008B5D0F8043843F00203C0F8D8
:102C080004380320FDF7D6FC002008BD50B18269C6
:102C18005AB1C26962B1036A0BB1002070474FF024
:102C2800FF3070474FF0FF3070474FF0FF3070476C
:102C38004FF0FF30704710B5044600F09DFA034688
:102C480008B1184610BD204600F060FD0346F8E7BD
:102C580010B50446FFF7DAFF034608B1184610BD61
:102C6800034B2361204600F0B5FA0346F6E700BFA0
:102C7800A441000830B583B005460C460846FFF766
:102C8800C5FF034658B9EDB2022D13D0032D09D064
:102C9800012D16D0204600F0B4FB0346C8B11846F3
:102CA80003B030BD0C2363720223237201236373C4
:102CB8002373EFE70B236372022323726373237377
:102CC800E8E70A23637202232372032363732373DF
:102CD800E0E7204600F039FD03460028DFD105F083
:102CE800030502A921F8045D23460122022000F011
:102CF80029FB0346D3E770B582B005460E46144655
:102D08001046FFF783FF2B1C18BF012300280CBFB8
:102D18001846002078B38EB32346042269461E2045
:102D280000F0D4FA034610B1184602B070BD23462D
:102D3800022201A9272000F0C9FA03460028F3D18E
:102D48009DF800309DF8012043EA02232B809DF86E
:102D580002309DF8032043EA02236B809DF804307B
:102D68009DF8052043EA0223AB802146304600F057
:102D78007CFD0346D8E74FF0FF33D5E74FF0FF332C
:102D8800D2E738B504460D4600F0C0FB034608B14B
:102D9800184638BD2946E01C00F0B8FB0346002859
:102DA800F6D12946A01D00F092FD03460028EFD178
:102DB800294604F1090000F08AFD0346E8E700000F
:102DC800F0B583B016461F4601F07F0102AC04F847
:102DD800011D0546002201461048FDF799FF3223E0
:102DE800012221460E48FFF726F80D48FFF7EAFAB8
:102DF8000228FAD032233A4631460948FFF71BF831
:102E08000748FFF7DFFA0228FAD0012229460348CB
:102E1800FDF77EFF002003B0F0BD00BF00040240B4
:102E2800F40400202DE9F04383B09046994661F000
:102E38007F0102AC04F8011D06460E4D0022014632
:102E48002846FDF765FF0C4F3223012221463846FC
:102E5800FEF7F1FF32234A4641463846FFF7F0F9BC
:102E6800012231462846FDF753FF002003B0BDE894
:102E7800F08300BF00040240F404002050B18269CE
:102E88005AB1C26962B1036A0BB1002070474FF0B2
:102E9800FF3070474FF0FF3070474FF0FF307047FA
:102EA8004FF0FF30704738B51C461B79012B09D00D
:102EB800E56913460A460146A078A847034620B9A3
:102EC800184638BD00F07F00F2E76FF00103F7E71E
:102ED80030B583B0054614464908C1F307138DF889
:102EE800073001F00F0302A901F8023D1346012241
:102EF8005B20FFF7D8FF034610B1184603B030BD7A
:102F0800234601220DF107015C20FFF7CCFF0346A1
:102F18000028F2D12346227D29465E20FFF7C3FF11
:102F28000346EAE72DE9F84300AF894615461C46F3
:102F38005B7913449BB2DA1DD2086946A1EBC20241
:102F48009546E8462279012A08D0A66942460146F4
:102F5800A078B047014620B900230DE040F080007A
:102F6800F3E76FF0010109E062791A4418F80220CA
:102F780009F8032001339BB2AB42F5D30846BD469E
:102F8800BDE8F88370B582B0037823B1012B38D03F
:102F98006FF0040332E053260D4604460B46012227
:102FA8000DF107013046FFF7BDFF034630BB9DF822
:102FB800073023F002035BB2A27802F0010143EA72
:102FC800410323F00403C2F3400243EA8203DAB266
:102FD8006178022917D023F00803A278C2F380028F
:102FE80043EAC20303F0EF038DF807302B460122B2
:102FF8000DF107013046FFF756FF0346184602B0A9
:1030080070BD5426C8E742F0010323F010035BB2F9
:10301800A278C2F3800243EA021303F0F7038DF8A3
:103028000730E3E730B583B005460C460846FFF79E
:1030380025FF0346C8B900238DF807302B7823B144
:10304800012B15D06FF004030FE05620AB7813F076
:10305800040F02D001238DF80730234601220DF119
:103068000701FFF720FF034620B1184603B030BD23
:103078005720EBE721462846FFF784FF0346F4E78D
:1030880038B505460C460846FFF7F8FE034608B172
:10309800184638BD21462846FFF774FF0346F7E770
:1030A80030B583B005460C460846FFF7E7FE0346F1
:1030B800C8B900238DF807302B7823B1012B15D020
:1030C8006FF004030FE05620AB7813F0040F02D022
:1030D80002238DF80730234601220DF10701FFF77F
:1030E800E2FE034620B1184603B030BD5720EBE797
:1030F80021462846FFF746FF0346F4E730B583B07C
:1031080005460C4602A9002301F8013D2346012289
:103118005820FFF707FF0346C0B9AB78C3F3800315
:103128002A7822B1012A14D06FF004030EE09DF82A
:10313800072022F0040252B242EA83038DF80730D6
:1031480021462846FFF71EFF034660B1184603B024
:1031580030BD9DF8072022F0400252B242EA8313A4
:103168008DF80730ECE7234601220DF107015820BE
:10317800FFF799FE0346E9E710B582B0044600233D
:103188008DF80730FFF77AFE034628B92279012A1D
:1031980005D00022627153B1184602B010BD6271A9
:1031A80023460DF10701FFF7BDFE0346F3E723466B
:1031B80001220DF107010020FFF7B4FE03460028A5
:1031C800EAD19DF807201E2A01D12270E4E76FF0AA
:1031D8000203E1E770B582B0044600238DF807309A
:1031E8008DF806308DF80530FFF748FE002861D1CC
:1031F8002369002B61D0237D002B61D02346012257
:103208000DF106017D20FFF78DFE064610B1304610
:1032180002B070BD234601220DF107017D20FFF7A2
:1032280042FE06460028F2D1236A05209847234625
:1032380001220DF107015920FFF735FE0646002847
:10324800E5D1002509E02069224629462844FFF7F0
:103258003FFE0646237D1D44ADB2B5F5C05FF2D3EF
:10326800002ED4D1012202A901F8012D23465920AC
:10327800FFF719FE034650B9236A9620984723465C
:1032880001220DF105012A20FFF74CFE03461BB968
:103298009DF80530012B16D1234601220DF10601B8
:1032A8007D20FFF700FE06460028B0D1236A0520DE
:1032B8009847ACE74FF0FF36A9E74FF0FF36A6E78F
:1032C8006FF00606A3E76FF00506A0E7F8B5074616
:1032D8000C4616461D461846FFF7D0FD231C18BF9E
:1032E800012300280CBF1846002038B14EB12B46E8
:1032F800324621463846FFF715FEF8BD4FF0FF303D
:10330800FBE76FF00600F8E7F8B507460C461646E7
:103318001D461846FFF7B2FD231C18BF01230028DD
:103328000CBF1846002038B14EB12B463246214614
:103338003846FFF7B8FDF8BD4FF0FF30FBE76FF0F8
:103348000600F8E72DE9F04700AF04468A4615461F
:103358001E461846FFF792FDA1462C446400E31D63
:1033680003F4FF63ADEB030D034618B11846BD46E1
:10337800BDE8F087A8466D463346224629465E20BA
:10338800FFF7A4FF03460028F0D100230AE03AF82B
:10339800132009EB0300410005F810200131120A3F
:1033A8006A5401339845F2DC3346224629465E20AA
:1033B800FFF7AAFF0346D9E730B583B00546FFF704
:1033C8005DFD044610B1204603B030BD02A9B62306
:1033D80001F8013D2B4601227E20FFF764FD0446DB
:1033E8000028F0D12B6A012098472B79012BEAD1CC
:1033F8002B4601220DF107010020FFF793FD04463B
:10340800E1E7F0B583B004460023ADF80430FFF7D8
:1034180035FD0346C0B9677A257AE6797B1FDBB2AA
:10342800072B14D80022022D13D80023032E12D8FC
:103438000021134331D199BB2346022201A9402020
:10344800FFF770FD034640B1184603B0F0BD0122F6
:10345800E9E70123EAE70121EBE79DF9043023F0CE
:103468000F0307F00F073B4323F070032D0105F00E
:1034780070051D438DF804509DF9053023F00303B2
:1034880006F003061E438DF805602346022201A9B3
:103498004020FFF708FD0346D6E76FF00703D3E7A0
:1034A8006FF00703D0E730B583B00446FFF7E6FCBA
:1034B8000546E8B9A379F3B98DF8043004238DF8EB
:1034C80005302346012201A97C20FFF7ECFC0546C4
:1034D80070B9236A05209847234601220DF105019A
:1034E8007D20FFF7E0FC054610B9236A05209847C0
:1034F800284603B030BD032B05D18DF804300023D6
:103508008DF80530DDE76FF00405F1E738B50446BE
:103518000D460846FFF7B2FC231C18BF01230028FC
:103528000CBF18460020D0B16378032B1AD8DFE807
:1035380003F002070C1129462046FFF7DFFD38BDCE
:1035480029462046FFF76EFDF9E729462046FFF792
:1035580097FDF4E729462046FFF7A2FDEFE74FF075
:10356800FF30ECE76FF00700E9E750B182695AB124
:10357800C26962B1036A0BB1002070474FF0FF3097
:1035880070474FF0FF3070474FF0FF3070474FF0F3
:10359800FF30704738B51C461B79012B09D0A56947
:1035A80013460A460146E078A847034620B918465C
:1035B80038BD40F08000F2E76FF00103F7E738B557
:1035C8001C461B79012B09D0E56913460A460146BA
:1035D800E078A847034620B9184638BD00F07F00B8
:1035E800F2E76FF00103F7E730B583B005460C4604
:1035F8000B4601220DF107011620FFF7CBFF03460A
:1036080058B92B7863B1012B1CD0234601220DF148
:1036180007011620FFF7D3FF0346184603B030BD55
:103628009DF8073023F001035BB2AA7802F001018C
:103638000B4323F00203C2F3400243EA42038DF82E
:103648000730E2E79DF8073023F004035BB2AA785D
:1036580002F0010143EA810323F00803C2F34002A8
:1036680043EAC2038DF80730CFE730B583B005468B
:103678000C4602A9002321F8043D23460122182004
:10368800FFF788FF034608BBAB78C3F38003D9B2C2
:103698002A7822B1012A1CD06FF0040316E09DF9A4
:1036A800042022F0010213438DF804309DF8043001
:1036B80013F0810F16D080238DF8053023460122A0
:1036C80001A91820FFF77BFF034678B1184603B01D
:1036D80030BD9DF9043003F07F0343EAC1138DF830
:1036E8000430E3E700238DF80530E7E72146284654
:1036F800FFF77AFF03460028E8D1234601220DF19F
:1037080005011520FFF75BFF0346DFE710B582B020
:10371800044600238DF80730FFF727FF034610B152
:10372800184602B010BD234601220DF10701FFF72C
:1037380031FF03460028F3D19DF807200F2A01D155
:103748006270EDE76FF00203EAE770B582B00446F5
:10375800FFF70BFF034690B9657BE67A072D11D872
:103768000023042E10D8002213433ED12346012201
:103778000DF107011020FFF70DFF034630B1184681
:1037880002B070BD0123ECE70122EDE79DF8073098
:1037980023F00F035BB205F00F051D4302A901F8E2
:1037A800015D234601221020FFF709FF0346002888
:1037B800E5D1234601220DF107010F20FFF7EAFEAC
:1037C80003460028DBD19DF8073023F007035BB2DE
:1037D80006F007061E4302A901F8016D23460122DF
:1037E8000F20FFF7ECFE0346C9E76FF00703C6E7B3
:1037F80030B583B00546FFF7B8FE044610B1204641
:1038080003B030BD2B4601220DF106011120FFF750
:10381800C1FE04460028F2D1AB7A8DF80730802B20
:1038280011D00122202B16D0E2B12B4601220DF136
:1038380007011120FFF7C3FE04460028DFD12B6AD9
:103848001E209847DBE79DF80620202A01D0012298
:10385800E8E70022E6E79DF80630802BE4D16FF018
:103868000404CCE76FF00404C9E730B583B004461C
:103878000D460846FFF779FE231C18BF01230028D0
:103888000CBF18460020F8B12B46062269460220D4
:10389800FFF780FE0246A0B99DF800309DF80110A0
:1038A80043EA012323809DF802309DF8031043EA80
:1038B800012363809DF804309DF8051043EA012335
:1038C800A380104603B030BD4FF0FF32F9E738B59A
:1038D80004460D460846FFF748FE231C18BF01237F
:1038E80000280CBF1846002030B163783BB9294640
:1038F8002046FFF7BAFE38BD4FF0FF30FBE76FF008
:103908000700F8E72DE9F0418CB0002407940894EB
:1039180009940A940B944B4B1A6B42F004021A63F5
:103928001A6B02F004020192019A1A6B42F08002AB
:103938001A631A6B02F080020292029A1A6B42F022
:1039480001021A631A6B02F001020392039A1A6BBE
:1039580042F002021A631A6B02F002020492049AFD
:103968001A6B42F008021A631A6B02F008020592F9
:10397800059A1A6B42F040021A631B6B03F040036E
:103988000693069B304E224644F2C3013046FDF7AB
:10399800BFF92E4D224640212846FDF7B9F94FF4CC
:1039A800015307932A4F0897099407A92948FDF757
:1039B800BFF844F2C30307934FF00108CDF8208005
:1039C80009940A9407A93046FDF7B2F84FF48043EA
:1039D80007930223089309940A940B9306F500664B
:1039E80007A93046FDF7A4F840230793CDF82080B7
:1039F80009940A9407A92846FDF79AF880230793A3
:103A08000894099407A92846FDF792F80323079319
:103A18000897099407A93046FDF78AF822462146F7
:103A28000620FCF7EDFD0620FCF71CFE2246214689
:103A38000720FCF7E5FD0720FCF714FE0CB0BDE8F5
:103A4800F08100BF00380240000402400018024024
:103A5800000011100008024000B583B01048114B57
:103A6800036001234360002303828DF80030802225
:103A78008DF80120E1228DF802208DF803308DF8B1
:103A880004308DF80530C0F814D08361C3614FF459
:103A980000030362FCF722FF03B05DF804FB00BFDC
:103AA800580500200080024008B50948094B03600A
:103AB8004FF4E133436000238360C36003610C2249
:103AC80042618361C36103624362FEF7E6FE08BD9B
:103AD800600000200048004008B50A484FF0A043A5
:103AE8000360062343600222C2600023036143612E
:103AF80082610122C26103624362C2620363FDF70D
:103B080021F908BDD400002008B50E480E4B03600B
:103B18004FF482734360002383604FF4E062C26015
:103B2800036143614FF4007282612022C261036223
:103B3800436283620722C262036308234363FEF77A
:103B48001DF908BDF40400200030014030B5B9B0BB
:103B5800342200212BA800F00DFB00242694279482
:103B6800289429942A949022214602A800F002FB66
:103B7800FDF77EF9204B1A6C42F080521A641B6CD8
:103B880003F080530093009B1C4B1A6842F4404298
:103B98001A601B6803F440430193019B01232B9394
:103BA8004FF4A0232C93022531954FF480033293D0
:103BB80004233393D82334933595092336932BA8BC
:103BC800FDF79CF9FDF75CF90F23269327952894B8
:103BD8004FF4A05329934FF480532A93072126A822
:103BE800FDF7E2FB064B02931594219402A8FDF71A
:103BF800B3FC39B030BD00BF00380240007000404F
:103C08000001200008B5FCF7B7FCFFF79FFFFFF79E
:103C180079FEFFF721FFFFF747FFFFF75DFFFFF78B
:103C280073FF2C4C002201212046FDF771F8002279
:103C380080212046FDF76CF8274C2046FEF7FBFF55
:103C4800264E30702046FFF7B7FB307020232375CF
:103C58000025A5712046FFF726FC3070A572204686
:103C6800FFF7C6FD2046FEF7F3FF3070E571E572F9
:103C780003201B4B18702146FEF7FCFF30701948D3
:103C8800057002234370837803F0FD0343F00503B6
:103C980083700126C6700671437903F0FD0343F073
:103CA800050343718571C571037A43F0050365F314
:103CB8004103037246728572C37A03F0FB033343F0
:103CC80065F34103C3722146FFF75BF8064B1E609C
:103CD800FEE700BF0004024008000020D0000020DA
:103CE800DC040020E80400204C00002082B00A4BCD
:103CF8001A6C42F080521A641A6C02F080520092D8
:103D0800009A5A6C42F480425A645B6C03F4804314
:103D18000193019B02B0704700380240F0B58DB0A6
:103D280000230793089309930A930B9302683A4B6D
:103D38009A4201D00DB0F0BDA3F590431A6B42F042
:103D480000721A631A6B02F000720092009A1A6BE2
:103D580042F080621A631A6B02F080620192019A43
:103D68001A6B42F000621A631A6B02F00062029248
:103D7800029A1A6B42F004021A631A6B02F00402E8
:103D88000392039A1A6B42F001021A631A6B02F04B
:103D980001020492049A1A6B42F002021A631A6B27
:103DA80002F002020592059A1A6B42F040021A6369
:103DB8001B6B03F040030693069B322307930226EE
:103DC800089603250A950B240B9407A91348FCF7BA
:103DD800AFFE862307930896002709970A950B9448
:103DE80007A90F48FCF7A4FE4FF400530793089661
:103DF80009970A950B9407A90A48FCF799FE4FF40E
:103E080020530793089609970A950B9407A9064823
:103E1800FCF78EFE8EE700BF0080024000080240DB
:103E280000000240000402400018024070B588B04B
:103E380000230393049305930693079302681D4B8D
:103E48009A4201D008B070BD03F584335A6C42F42D
:103E580080525A645A6C02F480520092009A1A6B8B
:103E680042F001021A631A6B02F001020192019AF0
:103E78001A6B42F008021A631B6B03F008030293E3
:103E8800029B6023039302260496032506950524C6
:103E9800079403A90848FCF74BFE80230393049674
:103EA800002305930695079403A90448FCF740FEF0
:103EB800C8E700BF0030014000000240000C02408B
:103EC80000B589B0002303930493059306930793E1
:103ED8000268144B9A4202D009B05DF804FB03F55E
:103EE800F8331A6C42F480221A641A6C02F48022A5
:103EF8000192019A1A6B42F008021A631B6B03F0D5
:103F080008030293029B4FF4407303930223049324
:103F1800032306930723079303A90348FCF708FE26
:103F2800DAE700BF00480040000C024030B589B015
:103F38000023039304930593069307930368B3F14F
:103F4800A04F01D009B030BD1A4C236B43F00103D8
:103F58002363236B03F001030093009B4FF4E853A2
:103F6800039302230493032306930A230793124D12
:103F780003A92846FCF7DCFD4FF4007303930023E4
:103F88000493059303A92846FCF7D2FD636B43F01D
:103F980080036363636B03F080030193019B636C8D
:103FA80043F480436364636C03F480430293029B8D
:103FB800C8E700BF00380240000002407047FEE733
:103FC800FEE7FEE7FEE770477047704708B5FCF765
:103FD800DFFA08BD10B5234B1B68B3F57A7F0BDCFD
:103FE800204A1368013313601F4B1B68012B0CD048
:103FF8000120FCF799FE10BD4FF480411B48FCF7E7
:104008008DFE184B00221A60EAE7194C194A1A4922
:104018002046FEF770FEB4F90030C7339BB2B3F503
:10402800C77F12D8012211461048FCF771FE104BC9
:10403800B3F90230C7339BB2B3F5C77F0BD900225F
:1040480080210A48FCF764FED2E7002201210748D4
:10405800FCF75EFEEBE7012280210448FCF758FEDE
:10406800C6E700BF580000204C00002000040240B2
:10407800D404002008000020E004002008B5022035
:10408800FCF752FE08BD000010B40F4AD2F8883081
:1040980043F47003C2F888300C4B196841F00101F1
:1040A8001960002098601C68094921401960094975
:1040B8005960196821F480211960D8604FF00063B5
:1040C80093605DF8044B704700ED00E00038024053
:1040D800FFFFF6FE10300024DFF834D0002103E0A3
:1040E8000C4B5B58435004310B480C4B42189A4216
:1040F800F6D30B4A02E0002342F8043B094B9A42EC
:10410800F9D3FFF7C1FF00F011F8FFF77BFD704707
:1041180000000820CC5900080000002030000020D2
:1041280030000020A0050020FEE7000070B50D4E0D
:104138000D4CA41BA4100025A54209D10B4E0C4C14
:1041480000F020F8A41BA4100025A54205D170BDDD
:1041580056F8253098470135EEE756F82530984748
:104168000135F2E7C4590008C4590008C4590008C9
:10417800C859000802440346934200D1704703F827
:10418800011BF9E7F8B500BFF8BC08BC9E467047AC
:0C419800F8B500BFF8BC08BC9E4670479C
:1041A400C82E002E802E4701C82E002EC82E002EA9
:1041B400C82E002E802EA000802E7C00802E11019F
:1041C4005039212EB0F01030212E16F0802E90019F
:1041D40000000000000000000000000000000000DB
:1041E400000000000000000000005ABE802E1800ED
:1041F400802E1800802E1800802E1800802E1800A3
:10420400802E1800802E1800802E1800802E180092
:10421400802E1800802E1800802E1800802E180082
:10422400802E1800802E1800802E1800802E180072
:10423400802E1800000000000000000000000000B4
:10424400000000000000000000000000000000006A
:10425400000000000000000000000000000000005A
:10426400000000000000000000000000000000004A
:10427400000000000000000000000000000000003A
:10428400000000000000000000000000000000002A
:104294000000000000000000A050807FE77FD57F71
:1042A400C47FB37FA27F917FF67F7B7F002E012E98
:1042B40043F008BC0FB8607F002E606F00B2012F7E
:1042C400982ED9B14030212EB8F0F66F916FA26FBD
:1042D400B36FC46FD56FE76F7B6F806F605FC82E5D
:1042E400A050807FE77FD57FC47FB37FA27F917F7B
:1042F400F67F7B7F002E012E29F008BC0FB8607F6B
:10430400002E606F01901B2F012E02010EBC0EB80F
:104314000090052F012E04010FBC0FB801B20D2F20
:10432400012E63000190042F982E6DB20030212ECF
:104334006300012E37F0212E37F0022D982E45B35D
:104344008030212EB8F0F66F916FA26FB36FC46FF7
:10435400D56FE76F7B6F806F605FC82E4030212E72
:10436400BAF0B82E8030212EBAF010248000032E2B
:1043740006F0080A212E06F0003E032E06F0080877
:104384005130010A212E06F0B82E0031212EBAF048
:10439400B82E1030212EBBF0B82E802E1800FD2D23
:1043A400AA0005000000000004000100ED8FD931CF
:1043B400C6018C03C60100000E000E0010001000A0
:1043C40010006050E77FF67F36300F2E01F0FEBFFD
:1043D400FEBBB705A67FD37FC47FB57F142489F0C5
:1043E4003F8B03414441B8BD9C0BA36F14241900B7
:1043F400B311438B1643002E67414641F8BFBE0BF1
:10440400B3111643438D002EA5418641D8BE6E0BD1
:10441400EB1003431330272E18000331272EB8F076
:10442400F66FE76FC46FB56FD36FA05FC82EA0504F
:10443400807F917FE77FD57FC47FB37FA27FF67FA4
:104444007B7F002E012EB9F0607F1030616F080869
:1044540000B2012F982EE6B01030212EB9F0212E93
:104464005FF0F66F916FA26FB36FC46FD56FE76F94
:104474007B6F806F605FC82E982E9E012026982E39
:10448400DE00982EF900982EF500982EE2001030E8
:10449400212E59F0982E9401213010241900002E59
:1044A400002ED02E052E180080B20230052F232EA8
:1044B4005FF0252E1800982E00B0982E51B2EC2DE6
:1044C4001A242600802E6C011050012E55F0F07F26
:1044D400002EF06F212E55F0F05FB82E20500030E2
:1044E400E07FFB7F1124B1F042404330930A424203
:1044F40058821224AF0062421224FF0042426982B1
:10450400723C43409A088332930A42424282023FF9
:1045140043409A0852420B314B427E82123142424E
:104524001124FE00052E40F051085E90272F11241F
:104534000002122405801324FFB71B2400B00430AA
:10454400053056326E1A002FA534691A012F5B25E7
:10455400002E5641260D0630CFBB41BEC091012F1F
:10456400002E012D220D818D90A1F52FEB0EE82F49
:10457400012E2500201A052F2030E07F032D303036
:10458400E07F002EE06F00B2032F212E59F0982E09
:104594009401FB6FE05FB82E802E1800802E180067
:1045A400B050F07F002E012E010102BC0FB8E07F55
:1045B400002E012E010101BC0FB8D07F002E012E68
:1045C40001010FB8C07F0230E66FD46FC36F8091D2
:1045D400042F0091022FC0B2902EE2B0F06F0B2E88
:1045E400240001824091142F4187272E240000408B
:1045F400212E1F005340102420001342002E41405E
:104604000142252E1C00252E1D00252E2200505F60
:10461400B82E0B2E0001D5BED5BAB57F002E0B2EB9
:104624000101D3BED3BAA57F002E0B2E0001D4BE48
:10463400DFBA957F002E956F0F2E1E003D1A052FB1
:10464400252E1C00252E1D002B2E1E00827F727F1E
:104654008091627F012F0630072D06400F2E1F0028
:10466400B70580A9D605B723867F0091012F0430B2
:10467400072D44400D2E2000260500A9940526236D
:10468400747FC090012F002E092D0286002EC34096
:10469400092E2100DC04C0A893049A22627F123000
:1046A400846FB36F630F1430082F746F630F14306B
:1046B400042F646F630F1430002F0430547F409133
:1046C4000B2E1C00546FA36F6A291D2F0091063016
:1046D400142420000D2F2D2E1C00052E1D00818476
:1046E400252E1D00052E1D00530E2B2F2D2E2200CE
:1046F400292D2B2E1C002D2E1D000B2E1C006B0EA5
:10470400202F252E22001E2D00B3052F0230252E2A
:104714001C00252E2200082D2B2E1C00092E1C0007
:10472400630E012F252E22000240252E1F00312565
:10473400002ED5401224200042259542002EC3406D
:104744008342002E052E220080B20D2F0040212E20
:104754001F0050401043002E404000432030212EC3
:104764005EF0022D252E2400505FB82E3050FB7FC2
:10477400982E23B213244F00D042C142FA82D17F33
:10478400E37F982E8DB1D16F002E414040B26D2F42
:10479400E16F4484032E4F008340B7844B0481426D
:1047A400002E8340C0AC012F232E4B0012259340D2
:1047B40082401A0F012FC0AC022F0330272E4B006A
:1047C4004286C984C0404340180E8240252F1225DA
:1047D400122451008F808240E07F982E69B1E16FEE
:1047E400002E404277827B84B986D6804140824045
:1047F400C340E07F982E69B1E16F002E404277827A
:104804007B84B886D78041408240C340E07F982EA5
:1048140069B1E16F002E4042242D11245B004580D4
:104824004140E07F982E7BB1E16F002E40427C82B4
:104834007B84B486D68041408240C340E07F982E7A
:104844007BB1E16F002E40427C827B84B386D780AB
:1048540041408240C340E07F982E7BB1E16F002E3F
:104864004042982EC5B11130232E5EF0FB6FD05F0D
:10487400B82E3050F37FE27FD17F13244E00D16FE6
:10488400E46FE240F06F2105C340A2100304101846
:10489400D05F0E00B82E3050F37FE27FD17F132417
:1048A4004E00E16FD46FE240F06F2105C340A210C7
:1048B40018041018D05F0E00B82E012E02018EBC11
:1048C400012E4A009EB8011A2E2F012E02010EBCA1
:1048D4000EB8212E4A00032E4A0043B210244D0084
:1048E4001B2F42B2112F41B2062F01301142014257
:1048F4003E80002E0142B82E413311426130014204
:104904003E80112480000142B82E01301142513002
:1049140001423E8041330142B82E71301142413090
:1049240001423E8081310142B82E102460001124DE
:1049340052F01240524228B55242002E12404242D6
:1049440042820040504208B440427E80A8B40142F2
:10495400B82E12245900904084822050504277800F
:1049640082404242FB7F0582004040427C800582B7
:10497400004040427C800582004040427784002E03
:1049840090408482824050427780424205820040B7
:1049940040427C800582004040427C800582004089
:1049A40040427C82E17F982E23B2E26F002E904237
:1049B4008142BC82102433F023400240B8BD9A0ADD
:1049C40003805242002E23400240B8BD9A0A03805D
:1049D4005242002E2240004028BD100A4042002EC0
:1049E400FB6FE05FB82E112428F050506040F07F38
:1049F40051256040E07F002E4140D17F002EE26FC0
:104A0400D06F00B2F36FA8B828BE590A200A012F4C
:104A1400B05FB82E4541C57F002EC56F4091092F68
:104A2400052E28F0B27F002EB26F1A1A072FF03F1E
:104A34001325052D151A022F1024FF00200AB05F3C
:104A4400B82E012E03018FBC012E23009FB8011A3A
:104A5400122F012E03010FBC0FB8212E2300113099
:104A6400052E23005108D23F012E07F0020891BC05
:104A7400010A212E07F0B82EB82E105012246D0012
:104A840000301B2DF16FD100002EC042BD84D10037
:104A9400002EC0428984D100002EC042BD84D100C2
:104AA400002EC0428984D100002EC042BD84D100B2
:104AB400002EC0424182F17FB784F16F42A2E12F00
:104AC400F05FB82EC050927FFB7F817F0030607F03
:104AD400707F507F002E032E04019DBC9EB8417F41
:104AE400002E426F527FE27F002E836FC382D37FFA
:104AF4000C2D556F7F89DC019D01CB418B43CC018B
:104B04004D01C7414743547F002E546F00ABF02F33
:104B14009B6F8A004B42C27FB17F507F7D80A07F14
:104B2400132408013F2D506F1801C684C80050009B
:104B34000541C7404440616F736F2F1800B30B2FBA
:104B440010A1032F3089BC11CE17062D7413063122
:104B5400B405BE15FC11AE0B4E00DF02617F737FFE
:104B6400B7840182D1008680A26F11018100C34005
:104B7400054184401D18726F00B3636F0B2F10A1A1
:104B8400032F3089BC11CE17062D74130631B405DA
:104B9400BE15FC11AE0BDE049706637F727F517F56
:104BA4003D86B16FE26F506F420EBC2FE06FC6823C
:104BB40098004800C06F834004404240616F706FAA
:104BC40080B21C180B2F90A0032FB084BA11CE17FB
:104BD400062D0331DA04FB143213FA11A30B4E0031
:104BE4000702617F707F002E726F80A8606FD16FA3
:104BF400132F8090032F1324FF7F430F0D2FBFA08B
:104C0400072FBF90032F12240080420E012F404231
:104C1400072D102400804042032D1024FF7F4042C2
:104C2400002EFB6F405F4040B82E112463003050CB
:104C340010305042FB7F102433F023400240B8BDB3
:104C44009A0A03805242002E23400240B8BD9A0AB9
:104C540003805242002E23400240B8BD9A0A3C8091
:104C640042427E84E07F8682D17F002E8240982E4D
:104C740092B2D16F7D82002E40427E800B82024030
:104C8400D17F982E92B2D16F7882002E40427E80DE
:104C940010820240D17F982E92B2D16F7382002E7F
:104CA40040427E80E16F1240524228B55242002EAB
:104CB4001240524228B55242002E0040504208B4DD
:104CC4004042002EFB6FD05FB82E802E1800802E3D
:104CD4001800802E1800802E1800802E1800802EB8
:104CE4001800802E1800802E1800802E1800802EA8
:104CF4001800802E1800802E1800802E1800802E98
:104D04001800802E1800802E1800802E1800802E87
:105994001800802E1800802E1800802E1800FD2D6F
:1059A40000000000000000000102030406070809CB
:0859B4000000000001020304E1
:0859BC00ACA8FF7F0100000010
:0459C4001D020008B8
:0459C800F9010008D9
:1059CC000100000010000000000040020100000077
:1059DC0000000000000000000000000000000000BB
:1059EC002D2E0008C92D0008BD0500080024F40068
:04000005080040E1CE
:00000001FF
