Archive member included to satisfy reference by file (symbol)

c:/ac6/systemworkbench/plugins/fr.ac6.mcu.externaltools.arm-none.win32_1.16.0.201807130628/tools/compiler/bin/../lib/gcc/arm-none-eabi/7.2.1/thumb/v7e-m/fpv5/hard\libgcc.a(_aeabi_uldivmod.o)
                              Drivers/STM32F7xx_HAL_Driver/Src/stm32f7xx_hal_rcc.o (__aeabi_uldivmod)
c:/ac6/systemworkbench/plugins/fr.ac6.mcu.externaltools.arm-none.win32_1.16.0.201807130628/tools/compiler/bin/../lib/gcc/arm-none-eabi/7.2.1/thumb/v7e-m/fpv5/hard\libgcc.a(_udivmoddi4.o)
                              c:/ac6/systemworkbench/plugins/fr.ac6.mcu.externaltools.arm-none.win32_1.16.0.201807130628/tools/compiler/bin/../lib/gcc/arm-none-eabi/7.2.1/thumb/v7e-m/fpv5/hard\libgcc.a(_aeabi_uldivmod.o) (__udivmoddi4)
c:/ac6/systemworkbench/plugins/fr.ac6.mcu.externaltools.arm-none.win32_1.16.0.201807130628/tools/compiler/bin/../lib/gcc/arm-none-eabi/7.2.1/thumb/v7e-m/fpv5/hard\libgcc.a(_dvmd_tls.o)
                              c:/ac6/systemworkbench/plugins/fr.ac6.mcu.externaltools.arm-none.win32_1.16.0.201807130628/tools/compiler/bin/../lib/gcc/arm-none-eabi/7.2.1/thumb/v7e-m/fpv5/hard\libgcc.a(_aeabi_uldivmod.o) (__aeabi_ldiv0)
c:/ac6/systemworkbench/plugins/fr.ac6.mcu.externaltools.arm-none.win32_1.16.0.201807130628/tools/compiler/bin/../lib/gcc/arm-none-eabi/7.2.1/../../../../arm-none-eabi/lib/thumb/v7e-m/fpv5/hard\libc_nano.a(lib_a-exit.o)
                              c:/ac6/systemworkbench/plugins/fr.ac6.mcu.externaltools.arm-none.win32_1.16.0.201807130628/tools/compiler/bin/../lib/gcc/arm-none-eabi/7.2.1/../../../../arm-none-eabi/lib/thumb/v7e-m/fpv5/hard/crt0.o (exit)
c:/ac6/systemworkbench/plugins/fr.ac6.mcu.externaltools.arm-none.win32_1.16.0.201807130628/tools/compiler/bin/../lib/gcc/arm-none-eabi/7.2.1/../../../../arm-none-eabi/lib/thumb/v7e-m/fpv5/hard\libc_nano.a(lib_a-impure.o)
                              c:/ac6/systemworkbench/plugins/fr.ac6.mcu.externaltools.arm-none.win32_1.16.0.201807130628/tools/compiler/bin/../lib/gcc/arm-none-eabi/7.2.1/../../../../arm-none-eabi/lib/thumb/v7e-m/fpv5/hard\libc_nano.a(lib_a-exit.o) (_global_impure_ptr)
c:/ac6/systemworkbench/plugins/fr.ac6.mcu.externaltools.arm-none.win32_1.16.0.201807130628/tools/compiler/bin/../lib/gcc/arm-none-eabi/7.2.1/../../../../arm-none-eabi/lib/thumb/v7e-m/fpv5/hard\libc_nano.a(lib_a-init.o)
                              c:/ac6/systemworkbench/plugins/fr.ac6.mcu.externaltools.arm-none.win32_1.16.0.201807130628/tools/compiler/bin/../lib/gcc/arm-none-eabi/7.2.1/../../../../arm-none-eabi/lib/thumb/v7e-m/fpv5/hard/crt0.o (__libc_init_array)
c:/ac6/systemworkbench/plugins/fr.ac6.mcu.externaltools.arm-none.win32_1.16.0.201807130628/tools/compiler/bin/../lib/gcc/arm-none-eabi/7.2.1/../../../../arm-none-eabi/lib/thumb/v7e-m/fpv5/hard\libc_nano.a(lib_a-memset.o)
                              c:/ac6/systemworkbench/plugins/fr.ac6.mcu.externaltools.arm-none.win32_1.16.0.201807130628/tools/compiler/bin/../lib/gcc/arm-none-eabi/7.2.1/../../../../arm-none-eabi/lib/thumb/v7e-m/fpv5/hard/crt0.o (memset)
c:/ac6/systemworkbench/plugins/fr.ac6.mcu.externaltools.arm-none.win32_1.16.0.201807130628/tools/compiler/bin/../lib/gcc/arm-none-eabi/7.2.1/../../../../arm-none-eabi/lib/thumb/v7e-m/fpv5/hard\libnosys.a(_exit.o)
                              c:/ac6/systemworkbench/plugins/fr.ac6.mcu.externaltools.arm-none.win32_1.16.0.201807130628/tools/compiler/bin/../lib/gcc/arm-none-eabi/7.2.1/../../../../arm-none-eabi/lib/thumb/v7e-m/fpv5/hard\libc_nano.a(lib_a-exit.o) (_exit)

Allocating common symbols
Common symbol       size              file

huart3              0x70              Src/main.o
rslt                0x1               Src/main.o
hpcd_USB_OTG_FS     0x400             Src/main.o
user_accel_bmi088   0x6               Src/main.o
uwTick              0x4               Drivers/STM32F7xx_HAL_Driver/Src/stm32f7xx_hal.o
sync_cfg            0x1               Src/main.o
pFlash              0x1c              Drivers/STM32F7xx_HAL_Driver/Src/stm32f7xx_hal_flash.o
user_gyro_bmi088    0x6               Src/main.o
int_config          0xc               Src/main.o
hspi1               0x64              Src/main.o
heth                0x48              Src/main.o

Discarded input sections

 .text          0x00000000        0x0 c:/ac6/systemworkbench/plugins/fr.ac6.mcu.externaltools.arm-none.win32_1.16.0.201807130628/tools/compiler/bin/../lib/gcc/arm-none-eabi/7.2.1/thumb/v7e-m/fpv5/hard/crti.o
 .data          0x00000000        0x0 c:/ac6/systemworkbench/plugins/fr.ac6.mcu.externaltools.arm-none.win32_1.16.0.201807130628/tools/compiler/bin/../lib/gcc/arm-none-eabi/7.2.1/thumb/v7e-m/fpv5/hard/crti.o
 .bss           0x00000000        0x0 c:/ac6/systemworkbench/plugins/fr.ac6.mcu.externaltools.arm-none.win32_1.16.0.201807130628/tools/compiler/bin/../lib/gcc/arm-none-eabi/7.2.1/thumb/v7e-m/fpv5/hard/crti.o
 .data          0x00000000        0x4 c:/ac6/systemworkbench/plugins/fr.ac6.mcu.externaltools.arm-none.win32_1.16.0.201807130628/tools/compiler/bin/../lib/gcc/arm-none-eabi/7.2.1/thumb/v7e-m/fpv5/hard/crtbegin.o
 .text          0x00000000       0x74 c:/ac6/systemworkbench/plugins/fr.ac6.mcu.externaltools.arm-none.win32_1.16.0.201807130628/tools/compiler/bin/../lib/gcc/arm-none-eabi/7.2.1/../../../../arm-none-eabi/lib/thumb/v7e-m/fpv5/hard/crt0.o
 .data          0x00000000        0x0 c:/ac6/systemworkbench/plugins/fr.ac6.mcu.externaltools.arm-none.win32_1.16.0.201807130628/tools/compiler/bin/../lib/gcc/arm-none-eabi/7.2.1/../../../../arm-none-eabi/lib/thumb/v7e-m/fpv5/hard/crt0.o
 .bss           0x00000000        0x0 c:/ac6/systemworkbench/plugins/fr.ac6.mcu.externaltools.arm-none.win32_1.16.0.201807130628/tools/compiler/bin/../lib/gcc/arm-none-eabi/7.2.1/../../../../arm-none-eabi/lib/thumb/v7e-m/fpv5/hard/crt0.o
 .ARM.extab     0x00000000        0x0 c:/ac6/systemworkbench/plugins/fr.ac6.mcu.externaltools.arm-none.win32_1.16.0.201807130628/tools/compiler/bin/../lib/gcc/arm-none-eabi/7.2.1/../../../../arm-none-eabi/lib/thumb/v7e-m/fpv5/hard/crt0.o
 .ARM.exidx     0x00000000        0x8 c:/ac6/systemworkbench/plugins/fr.ac6.mcu.externaltools.arm-none.win32_1.16.0.201807130628/tools/compiler/bin/../lib/gcc/arm-none-eabi/7.2.1/../../../../arm-none-eabi/lib/thumb/v7e-m/fpv5/hard/crt0.o
 .ARM.attributes
                0x00000000       0x1e c:/ac6/systemworkbench/plugins/fr.ac6.mcu.externaltools.arm-none.win32_1.16.0.201807130628/tools/compiler/bin/../lib/gcc/arm-none-eabi/7.2.1/../../../../arm-none-eabi/lib/thumb/v7e-m/fpv5/hard/crt0.o
 .group         0x00000000        0xc Drivers/STM32F7xx_HAL_Driver/Src/stm32f7xx_hal.o
 .group         0x00000000        0xc Drivers/STM32F7xx_HAL_Driver/Src/stm32f7xx_hal.o
 .group         0x00000000        0xc Drivers/STM32F7xx_HAL_Driver/Src/stm32f7xx_hal.o
 .group         0x00000000        0xc Drivers/STM32F7xx_HAL_Driver/Src/stm32f7xx_hal.o
 .group         0x00000000        0xc Drivers/STM32F7xx_HAL_Driver/Src/stm32f7xx_hal.o
 .group         0x00000000        0xc Drivers/STM32F7xx_HAL_Driver/Src/stm32f7xx_hal.o
 .group         0x00000000        0xc Drivers/STM32F7xx_HAL_Driver/Src/stm32f7xx_hal.o
Memory Configuration

Name             Origin             Length             Attributes
RAM              0x20000000         0x00080000         xrw
FLASH            0x08000000         0x00200000         xr
*default*        0x00000000         0xffffffff

Linker script and memory map

LOAD c:/ac6/systemworkbench/plugins/fr.ac6.mcu.externaltools.arm-none.win32_1.16.0.201807130628/tools/compiler/bin/../lib/gcc/arm-none-eabi/7.2.1/thumb/v7e-m/fpv5/hard/crti.o
LOAD c:/ac6/systemworkbench/plugins/fr.ac6.mcu.externaltools.arm-none.win32_1.16.0.201807130628/tools/compiler/bin/../lib/gcc/arm-none-eabi/7.2.1/thumb/v7e-m/fpv5/hard/crtbegin.o
LOAD c:/ac6/systemworkbench/plugins/fr.ac6.mcu.externaltools.arm-none.win32_1.16.0.201807130628/tools/compiler/bin/../lib/gcc/arm-none-eabi/7.2.1/../../../../arm-none-eabi/lib/thumb/v7e-m/fpv5/hard/crt0.o
LOAD Drivers/STM32F7xx_HAL_Driver/Src/stm32f7xx_hal.o
LOAD Drivers/STM32F7xx_HAL_Driver/Src/stm32f7xx_hal_cortex.o
LOAD Drivers/STM32F7xx_HAL_Driver/Src/stm32f7xx_hal_dma.o
LOAD Drivers/STM32F7xx_HAL_Driver/Src/stm32f7xx_hal_dma_ex.o
LOAD Drivers/STM32F7xx_HAL_Driver/Src/stm32f7xx_hal_eth.o
LOAD Drivers/STM32F7xx_HAL_Driver/Src/stm32f7xx_hal_flash.o
LOAD Drivers/STM32F7xx_HAL_Driver/Src/stm32f7xx_hal_flash_ex.o
LOAD Drivers/STM32F7xx_HAL_Driver/Src/stm32f7xx_hal_gpio.o
LOAD Drivers/STM32F7xx_HAL_Driver/Src/stm32f7xx_hal_i2c.o
LOAD Drivers/STM32F7xx_HAL_Driver/Src/stm32f7xx_hal_i2c_ex.o
LOAD Drivers/STM32F7xx_HAL_Driver/Src/stm32f7xx_hal_pcd.o
LOAD Drivers/STM32F7xx_HAL_Driver/Src/stm32f7xx_hal_pcd_ex.o
LOAD Drivers/STM32F7xx_HAL_Driver/Src/stm32f7xx_hal_pwr.o
LOAD Drivers/STM32F7xx_HAL_Driver/Src/stm32f7xx_hal_pwr_ex.o
LOAD Drivers/STM32F7xx_HAL_Driver/Src/stm32f7xx_hal_rcc.o
LOAD Drivers/STM32F7xx_HAL_Driver/Src/stm32f7xx_hal_rcc_ex.o
LOAD Drivers/STM32F7xx_HAL_Driver/Src/stm32f7xx_hal_spi.o
LOAD Drivers/STM32F7xx_HAL_Driver/Src/stm32f7xx_hal_tim.o
LOAD Drivers/STM32F7xx_HAL_Driver/Src/stm32f7xx_hal_tim_ex.o
LOAD Drivers/STM32F7xx_HAL_Driver/Src/stm32f7xx_hal_uart.o
LOAD Drivers/STM32F7xx_HAL_Driver/Src/stm32f7xx_ll_usb.o
LOAD Src/bmi085.o
LOAD Src/bmi088.o
LOAD Src/bmi088_stm32.o
LOAD Src/bmi08a.o
LOAD Src/bmi08g.o
LOAD Src/main.o
LOAD Src/stm32f7xx_hal_msp.o
LOAD Src/stm32f7xx_it.o
LOAD Src/system_stm32f7xx.o
LOAD startup/startup_stm32f767xx.o
LOAD c:/ac6/systemworkbench/plugins/fr.ac6.mcu.externaltools.arm-none.win32_1.16.0.201807130628/tools/compiler/bin/../lib/gcc/arm-none-eabi/7.2.1/../../../../arm-none-eabi/lib/thumb/v7e-m/fpv5/hard\libm.a
START GROUP
LOAD c:/ac6/systemworkbench/plugins/fr.ac6.mcu.externaltools.arm-none.win32_1.16.0.201807130628/tools/compiler/bin/../lib/gcc/arm-none-eabi/7.2.1/thumb/v7e-m/fpv5/hard\libgcc.a
LOAD c:/ac6/systemworkbench/plugins/fr.ac6.mcu.externaltools.arm-none.win32_1.16.0.201807130628/tools/compiler/bin/../lib/gcc/arm-none-eabi/7.2.1/../../../../arm-none-eabi/lib/thumb/v7e-m/fpv5/hard\libc_nano.a
END GROUP
START GROUP
LOAD c:/ac6/systemworkbench/plugins/fr.ac6.mcu.externaltools.arm-none.win32_1.16.0.201807130628/tools/compiler/bin/../lib/gcc/arm-none-eabi/7.2.1/thumb/v7e-m/fpv5/hard\libgcc.a
LOAD c:/ac6/systemworkbench/plugins/fr.ac6.mcu.externaltools.arm-none.win32_1.16.0.201807130628/tools/compiler/bin/../lib/gcc/arm-none-eabi/7.2.1/../../../../arm-none-eabi/lib/thumb/v7e-m/fpv5/hard\libc_nano.a
LOAD c:/ac6/systemworkbench/plugins/fr.ac6.mcu.externaltools.arm-none.win32_1.16.0.201807130628/tools/compiler/bin/../lib/gcc/arm-none-eabi/7.2.1/../../../../arm-none-eabi/lib/thumb/v7e-m/fpv5/hard\libnosys.a
END GROUP
START GROUP
LOAD c:/ac6/systemworkbench/plugins/fr.ac6.mcu.externaltools.arm-none.win32_1.16.0.201807130628/tools/compiler/bin/../lib/gcc/arm-none-eabi/7.2.1/thumb/v7e-m/fpv5/hard\libgcc.a
LOAD c:/ac6/systemworkbench/plugins/fr.ac6.mcu.externaltools.arm-none.win32_1.16.0.201807130628/tools/compiler/bin/../lib/gcc/arm-none-eabi/7.2.1/../../../../arm-none-eabi/lib/thumb/v7e-m/fpv5/hard\libc_nano.a
LOAD c:/ac6/systemworkbench/plugins/fr.ac6.mcu.externaltools.arm-none.win32_1.16.0.201807130628/tools/compiler/bin/../lib/gcc/arm-none-eabi/7.2.1/../../../../arm-none-eabi/lib/thumb/v7e-m/fpv5/hard\libnosys.a
END GROUP
LOAD c:/ac6/systemworkbench/plugins/fr.ac6.mcu.externaltools.arm-none.win32_1.16.0.201807130628/tools/compiler/bin/../lib/gcc/arm-none-eabi/7.2.1/thumb/v7e-m/fpv5/hard/crtend.o
LOAD c:/ac6/systemworkbench/plugins/fr.ac6.mcu.externaltools.arm-none.win32_1.16.0.201807130628/tools/compiler/bin/../lib/gcc/arm-none-eabi/7.2.1/thumb/v7e-m/fpv5/hard/crtn.o
                0x20080000                _estack = 0x20080000
                0x00000200                _Min_Heap_Size = 0x200
                0x00000400                _Min_Stack_Size = 0x400

.isr_vector     0x08000000      0x1f8
                0x08000000                . = ALIGN (0x4)
 *(.isr_vector)
 .isr_vector    0x08000000      0x1f8 startup/startup_stm32f767xx.o
                0x08000000                g_pfnVectors
                0x080001f8                . = ALIGN (0x4)

.text           0x080001f8     0x3fac
                0x080001f8                . = ALIGN (0x4)
 *(.text)
 .text          0x080001f8       0x40 c:/ac6/systemworkbench/plugins/fr.ac6.mcu.externaltools.arm-none.win32_1.16.0.201807130628/tools/compiler/bin/../lib/gcc/arm-none-eabi/7.2.1/thumb/v7e-m/fpv5/hard/crtbegin.o
 .text          0x08000238       0x30 c:/ac6/systemworkbench/plugins/fr.ac6.mcu.externaltools.arm-none.win32_1.16.0.201807130628/tools/compiler/bin/../lib/gcc/arm-none-eabi/7.2.1/thumb/v7e-m/fpv5/hard\libgcc.a(_aeabi_uldivmod.o)
                0x08000238                __aeabi_uldivmod
 .text          0x08000268      0x2cc c:/ac6/systemworkbench/plugins/fr.ac6.mcu.externaltools.arm-none.win32_1.16.0.201807130628/tools/compiler/bin/../lib/gcc/arm-none-eabi/7.2.1/thumb/v7e-m/fpv5/hard\libgcc.a(_udivmoddi4.o)
                0x08000268                __udivmoddi4
 .text          0x08000534        0x4 c:/ac6/systemworkbench/plugins/fr.ac6.mcu.externaltools.arm-none.win32_1.16.0.201807130628/tools/compiler/bin/../lib/gcc/arm-none-eabi/7.2.1/thumb/v7e-m/fpv5/hard\libgcc.a(_dvmd_tls.o)
                0x08000534                __aeabi_idiv0
                0x08000534                __aeabi_ldiv0
 *(.text*)
 .text.HAL_InitTick
                0x08000538       0x48 Drivers/STM32F7xx_HAL_Driver/Src/stm32f7xx_hal.o
                0x08000538                HAL_InitTick
 .text.HAL_Init
                0x08000580       0x16 Drivers/STM32F7xx_HAL_Driver/Src/stm32f7xx_hal.o
                0x08000580                HAL_Init
 *fill*         0x08000596        0x2 
 .text.HAL_IncTick
                0x08000598       0x18 Drivers/STM32F7xx_HAL_Driver/Src/stm32f7xx_hal.o
                0x08000598                HAL_IncTick
 .text.HAL_GetTick
                0x080005b0        0xc Drivers/STM32F7xx_HAL_Driver/Src/stm32f7xx_hal.o
                0x080005b0                HAL_GetTick
 .text.HAL_Delay
                0x080005bc       0x28 Drivers/STM32F7xx_HAL_Driver/Src/stm32f7xx_hal.o
                0x080005bc                HAL_Delay
 .text.HAL_NVIC_SetPriorityGrouping
                0x080005e4       0x24 Drivers/STM32F7xx_HAL_Driver/Src/stm32f7xx_hal_cortex.o
                0x080005e4                HAL_NVIC_SetPriorityGrouping
 .text.HAL_NVIC_SetPriority
                0x08000608       0x64 Drivers/STM32F7xx_HAL_Driver/Src/stm32f7xx_hal_cortex.o
                0x08000608                HAL_NVIC_SetPriority
 .text.HAL_NVIC_EnableIRQ
                0x0800066c       0x18 Drivers/STM32F7xx_HAL_Driver/Src/stm32f7xx_hal_cortex.o
                0x0800066c                HAL_NVIC_EnableIRQ
 .text.HAL_SYSTICK_Config
                0x08000684       0x2c Drivers/STM32F7xx_HAL_Driver/Src/stm32f7xx_hal_cortex.o
                0x08000684                HAL_SYSTICK_Config
 .text.ETH_MACAddressConfig
                0x080006b0       0x30 Drivers/STM32F7xx_HAL_Driver/Src/stm32f7xx_hal_eth.o
 .text.ETH_MACDMAConfig
                0x080006e0      0x118 Drivers/STM32F7xx_HAL_Driver/Src/stm32f7xx_hal_eth.o
 .text.HAL_ETH_ReadPHYRegister
                0x080007f8       0x78 Drivers/STM32F7xx_HAL_Driver/Src/stm32f7xx_hal_eth.o
                0x080007f8                HAL_ETH_ReadPHYRegister
 .text.HAL_ETH_WritePHYRegister
                0x08000870       0x74 Drivers/STM32F7xx_HAL_Driver/Src/stm32f7xx_hal_eth.o
                0x08000870                HAL_ETH_WritePHYRegister
 .text.HAL_ETH_Init
                0x080008e4      0x254 Drivers/STM32F7xx_HAL_Driver/Src/stm32f7xx_hal_eth.o
                0x080008e4                HAL_ETH_Init
 .text.HAL_GPIO_Init
                0x08000b38      0x1e0 Drivers/STM32F7xx_HAL_Driver/Src/stm32f7xx_hal_gpio.o
                0x08000b38                HAL_GPIO_Init
 .text.HAL_GPIO_WritePin
                0x08000d18        0xc Drivers/STM32F7xx_HAL_Driver/Src/stm32f7xx_hal_gpio.o
                0x08000d18                HAL_GPIO_WritePin
 .text.HAL_GPIO_TogglePin
                0x08000d24        0x8 Drivers/STM32F7xx_HAL_Driver/Src/stm32f7xx_hal_gpio.o
                0x08000d24                HAL_GPIO_TogglePin
 .text.HAL_GPIO_EXTI_Callback
                0x08000d2c        0x2 Drivers/STM32F7xx_HAL_Driver/Src/stm32f7xx_hal_gpio.o
                0x08000d2c                HAL_GPIO_EXTI_Callback
 *fill*         0x08000d2e        0x2 
 .text.HAL_GPIO_EXTI_IRQHandler
                0x08000d30       0x1c Drivers/STM32F7xx_HAL_Driver/Src/stm32f7xx_hal_gpio.o
                0x08000d30                HAL_GPIO_EXTI_IRQHandler
 .text.HAL_PCD_Init
                0x08000d4c      0x104 Drivers/STM32F7xx_HAL_Driver/Src/stm32f7xx_hal_pcd.o
                0x08000d4c                HAL_PCD_Init
 .text.HAL_PCDEx_ActivateLPM
                0x08000e50       0x28 Drivers/STM32F7xx_HAL_Driver/Src/stm32f7xx_hal_pcd_ex.o
                0x08000e50                HAL_PCDEx_ActivateLPM
 .text.HAL_PWR_EnableBkUpAccess
                0x08000e78       0x10 Drivers/STM32F7xx_HAL_Driver/Src/stm32f7xx_hal_pwr.o
                0x08000e78                HAL_PWR_EnableBkUpAccess
 .text.HAL_PWREx_EnableOverDrive
                0x08000e88       0x7c Drivers/STM32F7xx_HAL_Driver/Src/stm32f7xx_hal_pwr_ex.o
                0x08000e88                HAL_PWREx_EnableOverDrive
 .text.HAL_RCC_OscConfig
                0x08000f04      0x3d4 Drivers/STM32F7xx_HAL_Driver/Src/stm32f7xx_hal_rcc.o
                0x08000f04                HAL_RCC_OscConfig
 .text.HAL_RCC_GetSysClockFreq
                0x080012d8       0xd8 Drivers/STM32F7xx_HAL_Driver/Src/stm32f7xx_hal_rcc.o
                0x080012d8                HAL_RCC_GetSysClockFreq
 .text.HAL_RCC_ClockConfig
                0x080013b0      0x164 Drivers/STM32F7xx_HAL_Driver/Src/stm32f7xx_hal_rcc.o
                0x080013b0                HAL_RCC_ClockConfig
 .text.HAL_RCC_GetHCLKFreq
                0x08001514        0xc Drivers/STM32F7xx_HAL_Driver/Src/stm32f7xx_hal_rcc.o
                0x08001514                HAL_RCC_GetHCLKFreq
 .text.HAL_RCC_GetPCLK1Freq
                0x08001520       0x20 Drivers/STM32F7xx_HAL_Driver/Src/stm32f7xx_hal_rcc.o
                0x08001520                HAL_RCC_GetPCLK1Freq
 .text.HAL_RCC_GetPCLK2Freq
                0x08001540       0x20 Drivers/STM32F7xx_HAL_Driver/Src/stm32f7xx_hal_rcc.o
                0x08001540                HAL_RCC_GetPCLK2Freq
 .text.HAL_RCCEx_PeriphCLKConfig
                0x08001560      0x604 Drivers/STM32F7xx_HAL_Driver/Src/stm32f7xx_hal_rcc_ex.o
                0x08001560                HAL_RCCEx_PeriphCLKConfig
 .text.SPI_WaitFlagStateUntilTimeout
                0x08001b64       0x8a Drivers/STM32F7xx_HAL_Driver/Src/stm32f7xx_hal_spi.o
 .text.SPI_WaitFifoStateUntilTimeout
                0x08001bee       0xa8 Drivers/STM32F7xx_HAL_Driver/Src/stm32f7xx_hal_spi.o
 .text.SPI_EndRxTxTransaction
                0x08001c96       0x66 Drivers/STM32F7xx_HAL_Driver/Src/stm32f7xx_hal_spi.o
 .text.SPI_EndRxTransaction
                0x08001cfc       0x88 Drivers/STM32F7xx_HAL_Driver/Src/stm32f7xx_hal_spi.o
 .text.HAL_SPI_Init
                0x08001d84       0xba Drivers/STM32F7xx_HAL_Driver/Src/stm32f7xx_hal_spi.o
                0x08001d84                HAL_SPI_Init
 .text.HAL_SPI_Transmit
                0x08001e3e      0x16e Drivers/STM32F7xx_HAL_Driver/Src/stm32f7xx_hal_spi.o
                0x08001e3e                HAL_SPI_Transmit
 .text.HAL_SPI_TransmitReceive
                0x08001fac      0x29c Drivers/STM32F7xx_HAL_Driver/Src/stm32f7xx_hal_spi.o
                0x08001fac                HAL_SPI_TransmitReceive
 .text.HAL_SPI_Receive
                0x08002248      0x184 Drivers/STM32F7xx_HAL_Driver/Src/stm32f7xx_hal_spi.o
                0x08002248                HAL_SPI_Receive
 .text.HAL_SPI_GetState
                0x080023cc        0x6 Drivers/STM32F7xx_HAL_Driver/Src/stm32f7xx_hal_spi.o
                0x080023cc                HAL_SPI_GetState
 .text.UART_WaitOnFlagUntilTimeout
                0x080023d2       0x62 Drivers/STM32F7xx_HAL_Driver/Src/stm32f7xx_hal_uart.o
                0x080023d2                UART_WaitOnFlagUntilTimeout
 .text.UART_SetConfig
                0x08002434      0x35c Drivers/STM32F7xx_HAL_Driver/Src/stm32f7xx_hal_uart.o
                0x08002434                UART_SetConfig
 .text.UART_AdvFeatureConfig
                0x08002790       0xca Drivers/STM32F7xx_HAL_Driver/Src/stm32f7xx_hal_uart.o
                0x08002790                UART_AdvFeatureConfig
 .text.UART_CheckIdleState
                0x0800285a       0x48 Drivers/STM32F7xx_HAL_Driver/Src/stm32f7xx_hal_uart.o
                0x0800285a                UART_CheckIdleState
 .text.HAL_UART_Init
                0x080028a2       0x66 Drivers/STM32F7xx_HAL_Driver/Src/stm32f7xx_hal_uart.o
                0x080028a2                HAL_UART_Init
 .text.USB_CoreReset
                0x08002908       0x3c Drivers/STM32F7xx_HAL_Driver/Src/stm32f7xx_ll_usb.o
 .text.USB_CoreInit
                0x08002944       0x7c Drivers/STM32F7xx_HAL_Driver/Src/stm32f7xx_ll_usb.o
                0x08002944                USB_CoreInit
 .text.USB_DisableGlobalInt
                0x080029c0        0xc Drivers/STM32F7xx_HAL_Driver/Src/stm32f7xx_ll_usb.o
                0x080029c0                USB_DisableGlobalInt
 .text.USB_SetCurrentMode
                0x080029cc       0x30 Drivers/STM32F7xx_HAL_Driver/Src/stm32f7xx_ll_usb.o
                0x080029cc                USB_SetCurrentMode
 .text.USB_FlushTxFifo
                0x080029fc       0x28 Drivers/STM32F7xx_HAL_Driver/Src/stm32f7xx_ll_usb.o
                0x080029fc                USB_FlushTxFifo
 .text.USB_FlushRxFifo
                0x08002a24       0x24 Drivers/STM32F7xx_HAL_Driver/Src/stm32f7xx_ll_usb.o
                0x08002a24                USB_FlushRxFifo
 .text.USB_SetDevSpeed
                0x08002a48        0xe Drivers/STM32F7xx_HAL_Driver/Src/stm32f7xx_ll_usb.o
                0x08002a48                USB_SetDevSpeed
 *fill*         0x08002a56        0x2 
 .text.USB_DevInit
                0x08002a58      0x1a4 Drivers/STM32F7xx_HAL_Driver/Src/stm32f7xx_ll_usb.o
                0x08002a58                USB_DevInit
 .text.USB_DevDisconnect
                0x08002bfc       0x18 Drivers/STM32F7xx_HAL_Driver/Src/stm32f7xx_ll_usb.o
                0x08002bfc                USB_DevDisconnect
 .text.null_ptr_check
                0x08002c14       0x2a Src/bmi088.o
 .text.bmi088_init
                0x08002c3e       0x1a Src/bmi088.o
                0x08002c3e                bmi088_init
 .text.bmi088_apply_config_file
                0x08002c58       0x24 Src/bmi088.o
                0x08002c58                bmi088_apply_config_file
 .text.bmi088_configure_data_synchronization
                0x08002c7c       0x82 Src/bmi088.o
                0x08002c7c                bmi088_configure_data_synchronization
 .text.bmi088_get_synchronized_data
                0x08002cfe       0x8c Src/bmi088.o
                0x08002cfe                bmi088_get_synchronized_data
 .text.bmi088_set_data_sync_int_config
                0x08002d8a       0x3c Src/bmi088.o
                0x08002d8a                bmi088_set_data_sync_int_config
 *fill*         0x08002dc6        0x2 
 .text.stm32_spi_write
                0x08002dc8       0x64 Src/bmi088_stm32.o
                0x08002dc8                stm32_spi_write
 .text.stm32_spi_read
                0x08002e2c       0x58 Src/bmi088_stm32.o
                0x08002e2c                stm32_spi_read
 .text.null_ptr_check
                0x08002e84       0x2a Src/bmi08a.o
 .text.set_regs
                0x08002eae       0x2a Src/bmi08a.o
 .text.stream_transfer_write
                0x08002ed8       0x54 Src/bmi08a.o
 .text.get_regs
                0x08002f2c       0x60 Src/bmi08a.o
 .text.set_int_pin_config
                0x08002f8c       0xa0 Src/bmi08a.o
 .text.set_accel_sync_data_ready_int
                0x0800302c       0x5c Src/bmi08a.o
 .text.set_accel_sync_input
                0x08003088       0x20 Src/bmi08a.o
 .text.set_accel_anymotion_int
                0x080030a8       0x5c Src/bmi08a.o
 .text.set_accel_data_ready_int
                0x08003104       0x7c Src/bmi08a.o
 .text.bmi08a_init
                0x08003180       0x5c Src/bmi08a.o
                0x08003180                bmi08a_init
 .text.bmi08a_write_config_file
                0x080031dc       0xf8 Src/bmi08a.o
                0x080031dc                bmi08a_write_config_file
 .text.bmi08a_get_regs
                0x080032d4       0x3c Src/bmi08a.o
                0x080032d4                bmi08a_get_regs
 .text.bmi08a_set_regs
                0x08003310       0x3c Src/bmi08a.o
                0x08003310                bmi08a_set_regs
 .text.bmi08a_write_feature_config
                0x0800334c       0x74 Src/bmi08a.o
                0x0800334c                bmi08a_write_feature_config
 .text.bmi08a_soft_reset
                0x080033c0       0x4a Src/bmi08a.o
                0x080033c0                bmi08a_soft_reset
 .text.bmi08a_set_meas_conf
                0x0800340a       0xa4 Src/bmi08a.o
                0x0800340a                bmi08a_set_meas_conf
 .text.bmi08a_set_power_mode
                0x080034ae       0x66 Src/bmi08a.o
                0x080034ae                bmi08a_set_power_mode
 .text.bmi08a_set_int_config
                0x08003514       0x5e Src/bmi08a.o
                0x08003514                bmi08a_set_int_config
 .text.null_ptr_check
                0x08003572       0x2a Src/bmi08g.o
 .text.get_regs
                0x0800359c       0x2a Src/bmi08g.o
 .text.set_regs
                0x080035c6       0x2a Src/bmi08g.o
 .text.set_int_pin_config
                0x080035f0       0x82 Src/bmi08g.o
 .text.set_gyro_data_ready_int
                0x08003672       0xa2 Src/bmi08g.o
 .text.bmi08g_init
                0x08003714       0x3e Src/bmi08g.o
                0x08003714                bmi08g_init
 .text.bmi08g_set_meas_conf
                0x08003752       0xa6 Src/bmi08g.o
                0x08003752                bmi08g_set_meas_conf
 .text.bmi08g_set_power_mode
                0x080037f8       0x7a Src/bmi08g.o
                0x080037f8                bmi08g_set_power_mode
 .text.bmi08g_get_data
                0x08003872       0x64 Src/bmi08g.o
                0x08003872                bmi08g_get_data
 .text.bmi08g_set_int_config
                0x080038d6       0x36 Src/bmi08g.o
                0x080038d6                bmi08g_set_int_config
 .text.MX_GPIO_Init
                0x0800390c      0x154 Src/main.o
 .text.MX_ETH_Init
                0x08003a60       0x50 Src/main.o
 .text.MX_USART3_UART_Init
                0x08003ab0       0x30 Src/main.o
 .text.MX_USB_OTG_FS_PCD_Init
                0x08003ae0       0x30 Src/main.o
 .text.MX_SPI1_Init
                0x08003b10       0x44 Src/main.o
 .text.SystemClock_Config
                0x08003b54       0xb8 Src/main.o
                0x08003b54                SystemClock_Config
 .text.main     0x08003c0c       0xe8 Src/main.o
                0x08003c0c                main
 .text.HAL_MspInit
                0x08003cf4       0x30 Src/stm32f7xx_hal_msp.o
                0x08003cf4                HAL_MspInit
 .text.HAL_ETH_MspInit
                0x08003d24      0x110 Src/stm32f7xx_hal_msp.o
                0x08003d24                HAL_ETH_MspInit
 .text.HAL_SPI_MspInit
                0x08003e34       0x94 Src/stm32f7xx_hal_msp.o
                0x08003e34                HAL_SPI_MspInit
 .text.HAL_UART_MspInit
                0x08003ec8       0x6c Src/stm32f7xx_hal_msp.o
                0x08003ec8                HAL_UART_MspInit
 .text.HAL_PCD_MspInit
                0x08003f34       0x90 Src/stm32f7xx_hal_msp.o
                0x08003f34                HAL_PCD_MspInit
 .text.NMI_Handler
                0x08003fc4        0x2 Src/stm32f7xx_it.o
                0x08003fc4                NMI_Handler
 .text.HardFault_Handler
                0x08003fc6        0x2 Src/stm32f7xx_it.o
                0x08003fc6                HardFault_Handler
 .text.MemManage_Handler
                0x08003fc8        0x2 Src/stm32f7xx_it.o
                0x08003fc8                MemManage_Handler
 .text.BusFault_Handler
                0x08003fca        0x2 Src/stm32f7xx_it.o
                0x08003fca                BusFault_Handler
 .text.UsageFault_Handler
                0x08003fcc        0x2 Src/stm32f7xx_it.o
                0x08003fcc                UsageFault_Handler
 .text.SVC_Handler
                0x08003fce        0x2 Src/stm32f7xx_it.o
                0x08003fce                SVC_Handler
 .text.DebugMon_Handler
                0x08003fd0        0x2 Src/stm32f7xx_it.o
                0x08003fd0                DebugMon_Handler
 .text.PendSV_Handler
                0x08003fd2        0x2 Src/stm32f7xx_it.o
                0x08003fd2                PendSV_Handler
 .text.SysTick_Handler
                0x08003fd4        0x8 Src/stm32f7xx_it.o
                0x08003fd4                SysTick_Handler
 .text.EXTI0_IRQHandler
                0x08003fdc       0xa8 Src/stm32f7xx_it.o
                0x08003fdc                EXTI0_IRQHandler
 .text.EXTI1_IRQHandler
                0x08004084        0xa Src/stm32f7xx_it.o
                0x08004084                EXTI1_IRQHandler
 *fill*         0x0800408e        0x2 
 .text.SystemInit
                0x08004090       0x50 Src/system_stm32f7xx.o
                0x08004090                SystemInit
 .text.Reset_Handler
                0x080040e0       0x50 startup/startup_stm32f767xx.o
                0x080040e0                Reset_Handler
 .text.Default_Handler
                0x08004130        0x2 startup/startup_stm32f767xx.o
                0x08004130                RTC_Alarm_IRQHandler
                0x08004130                EXTI2_IRQHandler
                0x08004130                TIM8_CC_IRQHandler
                0x08004130                UART8_IRQHandler
                0x08004130                SPI4_IRQHandler
                0x08004130                TIM1_CC_IRQHandler
                0x08004130                DMA2_Stream5_IRQHandler
                0x08004130                JPEG_IRQHandler
                0x08004130                DMA1_Stream5_IRQHandler
                0x08004130                CAN3_RX1_IRQHandler
                0x08004130                PVD_IRQHandler
                0x08004130                TAMP_STAMP_IRQHandler
                0x08004130                CAN2_RX1_IRQHandler
                0x08004130                EXTI3_IRQHandler
                0x08004130                TIM8_TRG_COM_TIM14_IRQHandler
                0x08004130                DFSDM1_FLT1_IRQHandler
                0x08004130                TIM1_UP_TIM10_IRQHandler
                0x08004130                TIM8_UP_TIM13_IRQHandler
                0x08004130                I2C3_ER_IRQHandler
                0x08004130                DFSDM1_FLT2_IRQHandler
                0x08004130                I2C2_EV_IRQHandler
                0x08004130                DMA1_Stream2_IRQHandler
                0x08004130                CAN1_RX0_IRQHandler
                0x08004130                FPU_IRQHandler
                0x08004130                OTG_HS_WKUP_IRQHandler
                0x08004130                CAN3_SCE_IRQHandler
                0x08004130                LTDC_ER_IRQHandler
                0x08004130                CAN2_SCE_IRQHandler
                0x08004130                DMA2_Stream2_IRQHandler
                0x08004130                SPI1_IRQHandler
                0x08004130                TIM6_DAC_IRQHandler
                0x08004130                TIM1_BRK_TIM9_IRQHandler
                0x08004130                DCMI_IRQHandler
                0x08004130                CAN2_RX0_IRQHandler
                0x08004130                DMA2_Stream3_IRQHandler
                0x08004130                SAI2_IRQHandler
                0x08004130                DFSDM1_FLT3_IRQHandler
                0x08004130                USART6_IRQHandler
                0x08004130                CAN3_RX0_IRQHandler
                0x08004130                USART3_IRQHandler
                0x08004130                CAN1_RX1_IRQHandler
                0x08004130                UART5_IRQHandler
                0x08004130                DMA2_Stream0_IRQHandler
                0x08004130                TIM4_IRQHandler
                0x08004130                QUADSPI_IRQHandler
                0x08004130                I2C1_EV_IRQHandler
                0x08004130                DMA1_Stream6_IRQHandler
                0x08004130                DMA1_Stream1_IRQHandler
                0x08004130                UART4_IRQHandler
                0x08004130                TIM3_IRQHandler
                0x08004130                RCC_IRQHandler
                0x08004130                TIM8_BRK_TIM12_IRQHandler
                0x08004130                Default_Handler
                0x08004130                CEC_IRQHandler
                0x08004130                EXTI15_10_IRQHandler
                0x08004130                ADC_IRQHandler
                0x08004130                DMA1_Stream7_IRQHandler
                0x08004130                SPI5_IRQHandler
                0x08004130                TIM7_IRQHandler
                0x08004130                SDMMC1_IRQHandler
                0x08004130                CAN2_TX_IRQHandler
                0x08004130                TIM5_IRQHandler
                0x08004130                DMA2_Stream7_IRQHandler
                0x08004130                I2C3_EV_IRQHandler
                0x08004130                EXTI9_5_IRQHandler
                0x08004130                RTC_WKUP_IRQHandler
                0x08004130                LTDC_IRQHandler
                0x08004130                ETH_WKUP_IRQHandler
                0x08004130                SPDIF_RX_IRQHandler
                0x08004130                SPI2_IRQHandler
                0x08004130                OTG_HS_EP1_IN_IRQHandler
                0x08004130                DMA1_Stream0_IRQHandler
                0x08004130                CAN1_TX_IRQHandler
                0x08004130                EXTI4_IRQHandler
                0x08004130                RNG_IRQHandler
                0x08004130                ETH_IRQHandler
                0x08004130                OTG_HS_EP1_OUT_IRQHandler
                0x08004130                WWDG_IRQHandler
                0x08004130                SPI6_IRQHandler
                0x08004130                MDIOS_IRQHandler
                0x08004130                I2C4_EV_IRQHandler
                0x08004130                CAN3_TX_IRQHandler
                0x08004130                TIM2_IRQHandler
                0x08004130                OTG_FS_WKUP_IRQHandler
                0x08004130                TIM1_TRG_COM_TIM11_IRQHandler
                0x08004130                OTG_HS_IRQHandler
                0x08004130                DMA2D_IRQHandler
                0x08004130                SDMMC2_IRQHandler
                0x08004130                UART7_IRQHandler
                0x08004130                USART2_IRQHandler
                0x08004130                DFSDM1_FLT0_IRQHandler
                0x08004130                I2C2_ER_IRQHandler
                0x08004130                DMA2_Stream1_IRQHandler
                0x08004130                CAN1_SCE_IRQHandler
                0x08004130                FLASH_IRQHandler
                0x08004130                DMA2_Stream4_IRQHandler
                0x08004130                USART1_IRQHandler
                0x08004130                OTG_FS_IRQHandler
                0x08004130                SPI3_IRQHandler
                0x08004130                DMA1_Stream4_IRQHandler
                0x08004130                I2C1_ER_IRQHandler
                0x08004130                FMC_IRQHandler
                0x08004130                LPTIM1_IRQHandler
                0x08004130                I2C4_ER_IRQHandler
                0x08004130                DMA2_Stream6_IRQHandler
                0x08004130                SAI1_IRQHandler
                0x08004130                DMA1_Stream3_IRQHandler
 *fill*         0x08004132        0x2 
 .text.__libc_init_array
                0x08004134       0x48 c:/ac6/systemworkbench/plugins/fr.ac6.mcu.externaltools.arm-none.win32_1.16.0.201807130628/tools/compiler/bin/../lib/gcc/arm-none-eabi/7.2.1/../../../../arm-none-eabi/lib/thumb/v7e-m/fpv5/hard\libc_nano.a(lib_a-init.o)
                0x08004134                __libc_init_array
 .text.memset   0x0800417c       0x10 c:/ac6/systemworkbench/plugins/fr.ac6.mcu.externaltools.arm-none.win32_1.16.0.201807130628/tools/compiler/bin/../lib/gcc/arm-none-eabi/7.2.1/../../../../arm-none-eabi/lib/thumb/v7e-m/fpv5/hard\libc_nano.a(lib_a-memset.o)
                0x0800417c                memset
 *(.glue_7)
 .glue_7        0x0800418c        0x0 linker stubs
 *(.glue_7t)
 .glue_7t       0x0800418c        0x0 linker stubs
 *(.eh_frame)
 .eh_frame      0x0800418c        0x0 c:/ac6/systemworkbench/plugins/fr.ac6.mcu.externaltools.arm-none.win32_1.16.0.201807130628/tools/compiler/bin/../lib/gcc/arm-none-eabi/7.2.1/thumb/v7e-m/fpv5/hard/crtbegin.o
 *(.init)
 .init          0x0800418c        0x4 c:/ac6/systemworkbench/plugins/fr.ac6.mcu.externaltools.arm-none.win32_1.16.0.201807130628/tools/compiler/bin/../lib/gcc/arm-none-eabi/7.2.1/thumb/v7e-m/fpv5/hard/crti.o
                0x0800418c                _init
 .init          0x08004190        0x8 c:/ac6/systemworkbench/plugins/fr.ac6.mcu.externaltools.arm-none.win32_1.16.0.201807130628/tools/compiler/bin/../lib/gcc/arm-none-eabi/7.2.1/thumb/v7e-m/fpv5/hard/crtn.o
 *(.fini)
 .fini          0x08004198        0x4 c:/ac6/systemworkbench/plugins/fr.ac6.mcu.externaltools.arm-none.win32_1.16.0.201807130628/tools/compiler/bin/../lib/gcc/arm-none-eabi/7.2.1/thumb/v7e-m/fpv5/hard/crti.o
                0x08004198                _fini
 .fini          0x0800419c        0x8 c:/ac6/systemworkbench/plugins/fr.ac6.mcu.externaltools.arm-none.win32_1.16.0.201807130628/tools/compiler/bin/../lib/gcc/arm-none-eabi/7.2.1/thumb/v7e-m/fpv5/hard/crtn.o
                0x080041a4                . = ALIGN (0x4)
                0x080041a4                _etext = .

.vfp11_veneer   0x080041a4        0x0
 .vfp11_veneer  0x080041a4        0x0 linker stubs

.v4_bx          0x080041a4        0x0
 .v4_bx         0x080041a4        0x0 linker stubs

.iplt           0x080041a4        0x0
 .iplt          0x080041a4        0x0 c:/ac6/systemworkbench/plugins/fr.ac6.mcu.externaltools.arm-none.win32_1.16.0.201807130628/tools/compiler/bin/../lib/gcc/arm-none-eabi/7.2.1/thumb/v7e-m/fpv5/hard/crtbegin.o

.rodata         0x080041a4     0x1818
                0x080041a4                . = ALIGN (0x4)
 *(.rodata)
 .rodata        0x080041a4     0x1800 Src/bmi08a.o
                0x080041a4                bmi08x_config_file
 .rodata        0x080059a4       0x18 Src/system_stm32f7xx.o
                0x080059a4                AHBPrescTable
                0x080059b4                APBPrescTable
 *(.rodata*)
                0x080059bc                . = ALIGN (0x4)

.ARM.extab
 *(.ARM.extab* .gnu.linkonce.armextab.*)

.ARM            0x080059bc        0x8
                0x080059bc                __exidx_start = .
 *(.ARM.exidx*)
 .ARM.exidx     0x080059bc        0x8 c:/ac6/systemworkbench/plugins/fr.ac6.mcu.externaltools.arm-none.win32_1.16.0.201807130628/tools/compiler/bin/../lib/gcc/arm-none-eabi/7.2.1/thumb/v7e-m/fpv5/hard\libgcc.a(_udivmoddi4.o)
                0x080059c4                __exidx_end = .

.rel.dyn        0x080059c4        0x0
 .rel.iplt      0x080059c4        0x0 c:/ac6/systemworkbench/plugins/fr.ac6.mcu.externaltools.arm-none.win32_1.16.0.201807130628/tools/compiler/bin/../lib/gcc/arm-none-eabi/7.2.1/thumb/v7e-m/fpv5/hard/crtbegin.o

.preinit_array  0x080059c4        0x0
                0x080059c4                PROVIDE (__preinit_array_start, .)
 *(.preinit_array*)
                0x080059c4                PROVIDE (__preinit_array_end, .)

.init_array     0x080059c4        0x4
                0x080059c4                PROVIDE (__init_array_start, .)
 *(SORT_BY_NAME(.init_array.*))
 *(.init_array*)
 .init_array    0x080059c4        0x4 c:/ac6/systemworkbench/plugins/fr.ac6.mcu.externaltools.arm-none.win32_1.16.0.201807130628/tools/compiler/bin/../lib/gcc/arm-none-eabi/7.2.1/thumb/v7e-m/fpv5/hard/crtbegin.o
                0x080059c8                PROVIDE (__init_array_end, .)

.fini_array     0x080059c8        0x4
                [!provide]                PROVIDE (__fini_array_start, .)
 *(SORT_BY_NAME(.fini_array.*))
 *(.fini_array*)
 .fini_array    0x080059c8        0x4 c:/ac6/systemworkbench/plugins/fr.ac6.mcu.externaltools.arm-none.win32_1.16.0.201807130628/tools/compiler/bin/../lib/gcc/arm-none-eabi/7.2.1/thumb/v7e-m/fpv5/hard/crtbegin.o
                [!provide]                PROVIDE (__fini_array_end, .)
                0x080059cc                _sidata = LOADADDR (.data)

.data           0x20000000       0x30 load address 0x080059cc
                0x20000000                . = ALIGN (0x4)
                0x20000000                _sdata = .
 *(.data)
 .data          0x20000000        0x8 Drivers/STM32F7xx_HAL_Driver/Src/stm32f7xx_hal.o
                0x20000000                uwTickFreq
                0x20000004                uwTickPrio
 .data          0x20000008       0x24 Src/main.o
                0x20000008                dev
 .data          0x2000002c        0x4 Src/system_stm32f7xx.o
                0x2000002c                SystemCoreClock
 *(.data*)
                0x20000030                . = ALIGN (0x4)
                0x20000030                _edata = .

.igot.plt       0x20000030        0x0 load address 0x080059fc
 .igot.plt      0x20000030        0x0 c:/ac6/systemworkbench/plugins/fr.ac6.mcu.externaltools.arm-none.win32_1.16.0.201807130628/tools/compiler/bin/../lib/gcc/arm-none-eabi/7.2.1/thumb/v7e-m/fpv5/hard/crtbegin.o
                0x20000030                . = ALIGN (0x4)

.bss            0x20000030      0x570 load address 0x080059fc
                0x20000030                _sbss = .
                0x20000030                __bss_start__ = _sbss
 *(.bss)
 .bss           0x20000030       0x1c c:/ac6/systemworkbench/plugins/fr.ac6.mcu.externaltools.arm-none.win32_1.16.0.201807130628/tools/compiler/bin/../lib/gcc/arm-none-eabi/7.2.1/thumb/v7e-m/fpv5/hard/crtbegin.o
 .bss           0x2000004c        0x9 Src/main.o
                0x2000004c                init_flag
                0x20000050                count2
                0x20000054                data
 *fill*         0x20000055        0x3 
 .bss           0x20000058        0x4 Src/stm32f7xx_it.o
                0x20000058                count
 *(.bss*)
 *(COMMON)
 COMMON         0x2000005c        0x4 Drivers/STM32F7xx_HAL_Driver/Src/stm32f7xx_hal.o
                0x2000005c                uwTick
 COMMON         0x20000060      0x540 Src/main.o
                0x20000060                huart3
                0x200000d0                rslt
                0x200000d4                hpcd_USB_OTG_FS
                0x200004d4                user_accel_bmi088
                0x200004dc                sync_cfg
                0x200004e0                user_gyro_bmi088
                0x200004e8                int_config
                0x200004f4                hspi1
                0x20000558                heth
                0x200005a0                . = ALIGN (0x4)
                0x200005a0                _ebss = .
                0x200005a0                __bss_end__ = _ebss

._user_heap_stack
                0x200005a0      0x600 load address 0x080059fc
                0x200005a0                . = ALIGN (0x8)
                [!provide]                PROVIDE (end, .)
                [!provide]                PROVIDE (_end, .)
                0x200007a0                . = (. + _Min_Heap_Size)
 *fill*         0x200005a0      0x200 
                0x20000ba0                . = (. + _Min_Stack_Size)
 *fill*         0x200007a0      0x400 
                0x20000ba0                . = ALIGN (0x8)

/DISCARD/
 libc.a(*)
 libm.a(*)
 libgcc.a(*)

.ARM.attributes
                0x00000000       0x2e
 *(.ARM.attributes)
 .ARM.attributes
                0x00000000       0x20 c:/ac6/systemworkbench/plugins/fr.ac6.mcu.externaltools.arm-none.win32_1.16.0.201807130628/tools/compiler/bin/../lib/gcc/arm-none-eabi/7.2.1/thumb/v7e-m/fpv5/hard/crti.o
 .ARM.attributes
                0x00000020       0x32 c:/ac6/systemworkbench/plugins/fr.ac6.mcu.externaltools.arm-none.win32_1.16.0.201807130628/tools/compiler/bin/../lib/gcc/arm-none-eabi/7.2.1/thumb/v7e-m/fpv5/hard/crtbegin.o
 .ARM.attributes
                0x00000052       0x37 Drivers/STM32F7xx_HAL_Driver/Src/stm32f7xx_hal.o
 .ARM.attributes
                0x00000089       0x37 Drivers/STM32F7xx_HAL_Driver/Src/stm32f7xx_hal_cortex.o
 .ARM.attributes
                0x000000c0       0x37 Drivers/STM32F7xx_HAL_Driver/Src/stm32f7xx_hal_eth.o
 .ARM.attributes
                0x000000f7       0x37 Drivers/STM32F7xx_HAL_Driver/Src/stm32f7xx_hal_gpio.o
 .ARM.attributes
                0x0000012e       0x37 Drivers/STM32F7xx_HAL_Driver/Src/stm32f7xx_hal_pcd.o
 .ARM.attributes
                0x00000165       0x37 Drivers/STM32F7xx_HAL_Driver/Src/stm32f7xx_hal_pcd_ex.o
 .ARM.attributes
                0x0000019c       0x37 Drivers/STM32F7xx_HAL_Driver/Src/stm32f7xx_hal_pwr.o
 .ARM.attributes
                0x000001d3       0x37 Drivers/STM32F7xx_HAL_Driver/Src/stm32f7xx_hal_pwr_ex.o
 .ARM.attributes
                0x0000020a       0x37 Drivers/STM32F7xx_HAL_Driver/Src/stm32f7xx_hal_rcc.o
 .ARM.attributes
                0x00000241       0x37 Drivers/STM32F7xx_HAL_Driver/Src/stm32f7xx_hal_rcc_ex.o
 .ARM.attributes
                0x00000278       0x37 Drivers/STM32F7xx_HAL_Driver/Src/stm32f7xx_hal_spi.o
 .ARM.attributes
                0x000002af       0x37 Drivers/STM32F7xx_HAL_Driver/Src/stm32f7xx_hal_uart.o
 .ARM.attributes
                0x000002e6       0x37 Drivers/STM32F7xx_HAL_Driver/Src/stm32f7xx_ll_usb.o
 .ARM.attributes
                0x0000031d       0x37 Src/bmi088.o
 .ARM.attributes
                0x00000354       0x37 Src/bmi088_stm32.o
 .ARM.attributes
                0x0000038b       0x37 Src/bmi08a.o
 .ARM.attributes
                0x000003c2       0x37 Src/bmi08g.o
 .ARM.attributes
                0x000003f9       0x37 Src/main.o
 .ARM.attributes
                0x00000430       0x37 Src/stm32f7xx_hal_msp.o
 .ARM.attributes
                0x00000467       0x37 Src/stm32f7xx_it.o
 .ARM.attributes
                0x0000049e       0x37 Src/system_stm32f7xx.o
 .ARM.attributes
                0x000004d5       0x21 startup/startup_stm32f767xx.o
 .ARM.attributes
                0x000004f6       0x20 c:/ac6/systemworkbench/plugins/fr.ac6.mcu.externaltools.arm-none.win32_1.16.0.201807130628/tools/compiler/bin/../lib/gcc/arm-none-eabi/7.2.1/thumb/v7e-m/fpv5/hard\libgcc.a(_aeabi_uldivmod.o)
 .ARM.attributes
                0x00000516       0x32 c:/ac6/systemworkbench/plugins/fr.ac6.mcu.externaltools.arm-none.win32_1.16.0.201807130628/tools/compiler/bin/../lib/gcc/arm-none-eabi/7.2.1/thumb/v7e-m/fpv5/hard\libgcc.a(_udivmoddi4.o)
 .ARM.attributes
                0x00000548       0x20 c:/ac6/systemworkbench/plugins/fr.ac6.mcu.externaltools.arm-none.win32_1.16.0.201807130628/tools/compiler/bin/../lib/gcc/arm-none-eabi/7.2.1/thumb/v7e-m/fpv5/hard\libgcc.a(_dvmd_tls.o)
 .ARM.attributes
                0x00000568       0x32 c:/ac6/systemworkbench/plugins/fr.ac6.mcu.externaltools.arm-none.win32_1.16.0.201807130628/tools/compiler/bin/../lib/gcc/arm-none-eabi/7.2.1/../../../../arm-none-eabi/lib/thumb/v7e-m/fpv5/hard\libc_nano.a(lib_a-init.o)
 .ARM.attributes
                0x0000059a       0x32 c:/ac6/systemworkbench/plugins/fr.ac6.mcu.externaltools.arm-none.win32_1.16.0.201807130628/tools/compiler/bin/../lib/gcc/arm-none-eabi/7.2.1/../../../../arm-none-eabi/lib/thumb/v7e-m/fpv5/hard\libc_nano.a(lib_a-memset.o)
 .ARM.attributes
                0x000005cc       0x20 c:/ac6/systemworkbench/plugins/fr.ac6.mcu.externaltools.arm-none.win32_1.16.0.201807130628/tools/compiler/bin/../lib/gcc/arm-none-eabi/7.2.1/thumb/v7e-m/fpv5/hard/crtn.o
OUTPUT(BMI088_STM32.elf elf32-littlearm)

.debug_info     0x00000000    0x1f071
 .debug_info    0x00000000     0x12ef Drivers/STM32F7xx_HAL_Driver/Src/stm32f7xx_hal.o
 .debug_info    0x000012ef     0x19b9 Drivers/STM32F7xx_HAL_Driver/Src/stm32f7xx_hal_cortex.o
 .debug_info    0x00002ca8     0x210d Drivers/STM32F7xx_HAL_Driver/Src/stm32f7xx_hal_eth.o
 .debug_info    0x00004db5      0xfc7 Drivers/STM32F7xx_HAL_Driver/Src/stm32f7xx_hal_gpio.o
 .debug_info    0x00005d7c     0x1e75 Drivers/STM32F7xx_HAL_Driver/Src/stm32f7xx_hal_pcd.o
 .debug_info    0x00007bf1      0xfdd Drivers/STM32F7xx_HAL_Driver/Src/stm32f7xx_hal_pcd_ex.o
 .debug_info    0x00008bce     0x1242 Drivers/STM32F7xx_HAL_Driver/Src/stm32f7xx_hal_pwr.o
 .debug_info    0x00009e10     0x124b Drivers/STM32F7xx_HAL_Driver/Src/stm32f7xx_hal_pwr_ex.o
 .debug_info    0x0000b05b     0x136a Drivers/STM32F7xx_HAL_Driver/Src/stm32f7xx_hal_rcc.o
 .debug_info    0x0000c3c5     0x1099 Drivers/STM32F7xx_HAL_Driver/Src/stm32f7xx_hal_rcc_ex.o
 .debug_info    0x0000d45e     0x2617 Drivers/STM32F7xx_HAL_Driver/Src/stm32f7xx_hal_spi.o
 .debug_info    0x0000fa75     0x206c Drivers/STM32F7xx_HAL_Driver/Src/stm32f7xx_hal_uart.o
 .debug_info    0x00011ae1     0x2317 Drivers/STM32F7xx_HAL_Driver/Src/stm32f7xx_ll_usb.o
 .debug_info    0x00013df8      0x93c Src/bmi088.o
 .debug_info    0x00014734     0x1102 Src/bmi088_stm32.o
 .debug_info    0x00015836     0x19ee Src/bmi08a.o
 .debug_info    0x00017224      0xe0f Src/bmi08g.o
 .debug_info    0x00018033     0x2f48 Src/main.o
 .debug_info    0x0001af7b     0x23b6 Src/stm32f7xx_hal_msp.o
 .debug_info    0x0001d331      0xe0c Src/stm32f7xx_it.o
 .debug_info    0x0001e13d      0xf12 Src/system_stm32f7xx.o
 .debug_info    0x0001f04f       0x22 startup/startup_stm32f767xx.o

.debug_abbrev   0x00000000     0x3ae6
 .debug_abbrev  0x00000000      0x2e5 Drivers/STM32F7xx_HAL_Driver/Src/stm32f7xx_hal.o
 .debug_abbrev  0x000002e5      0x3d6 Drivers/STM32F7xx_HAL_Driver/Src/stm32f7xx_hal_cortex.o
 .debug_abbrev  0x000006bb      0x35b Drivers/STM32F7xx_HAL_Driver/Src/stm32f7xx_hal_eth.o
 .debug_abbrev  0x00000a16      0x2a7 Drivers/STM32F7xx_HAL_Driver/Src/stm32f7xx_hal_gpio.o
 .debug_abbrev  0x00000cbd      0x349 Drivers/STM32F7xx_HAL_Driver/Src/stm32f7xx_hal_pcd.o
 .debug_abbrev  0x00001006      0x286 Drivers/STM32F7xx_HAL_Driver/Src/stm32f7xx_hal_pcd_ex.o
 .debug_abbrev  0x0000128c      0x278 Drivers/STM32F7xx_HAL_Driver/Src/stm32f7xx_hal_pwr.o
 .debug_abbrev  0x00001504      0x2db Drivers/STM32F7xx_HAL_Driver/Src/stm32f7xx_hal_pwr_ex.o
 .debug_abbrev  0x000017df      0x356 Drivers/STM32F7xx_HAL_Driver/Src/stm32f7xx_hal_rcc.o
 .debug_abbrev  0x00001b35      0x2ad Drivers/STM32F7xx_HAL_Driver/Src/stm32f7xx_hal_rcc_ex.o
 .debug_abbrev  0x00001de2      0x2f2 Drivers/STM32F7xx_HAL_Driver/Src/stm32f7xx_hal_spi.o
 .debug_abbrev  0x000020d4      0x314 Drivers/STM32F7xx_HAL_Driver/Src/stm32f7xx_hal_uart.o
 .debug_abbrev  0x000023e8      0x340 Drivers/STM32F7xx_HAL_Driver/Src/stm32f7xx_ll_usb.o
 .debug_abbrev  0x00002728      0x22c Src/bmi088.o
 .debug_abbrev  0x00002954      0x24d Src/bmi088_stm32.o
 .debug_abbrev  0x00002ba1      0x26c Src/bmi08a.o
 .debug_abbrev  0x00002e0d      0x232 Src/bmi08g.o
 .debug_abbrev  0x0000303f      0x351 Src/main.o
 .debug_abbrev  0x00003390      0x2af Src/stm32f7xx_hal_msp.o
 .debug_abbrev  0x0000363f      0x283 Src/stm32f7xx_it.o
 .debug_abbrev  0x000038c2      0x212 Src/system_stm32f7xx.o
 .debug_abbrev  0x00003ad4       0x12 startup/startup_stm32f767xx.o

.debug_loc      0x00000000     0xa5cf
 .debug_loc     0x00000000       0xfd Drivers/STM32F7xx_HAL_Driver/Src/stm32f7xx_hal.o
 .debug_loc     0x000000fd      0x5c0 Drivers/STM32F7xx_HAL_Driver/Src/stm32f7xx_hal_cortex.o
 .debug_loc     0x000006bd      0xd75 Drivers/STM32F7xx_HAL_Driver/Src/stm32f7xx_hal_eth.o
 .debug_loc     0x00001432      0x469 Drivers/STM32F7xx_HAL_Driver/Src/stm32f7xx_hal_gpio.o
 .debug_loc     0x0000189b      0xd16 Drivers/STM32F7xx_HAL_Driver/Src/stm32f7xx_hal_pcd.o
 .debug_loc     0x000025b1       0xf8 Drivers/STM32F7xx_HAL_Driver/Src/stm32f7xx_hal_pcd_ex.o
 .debug_loc     0x000026a9       0x8d Drivers/STM32F7xx_HAL_Driver/Src/stm32f7xx_hal_pwr.o
 .debug_loc     0x00002736      0x198 Drivers/STM32F7xx_HAL_Driver/Src/stm32f7xx_hal_pwr_ex.o
 .debug_loc     0x000028ce      0x4cf Drivers/STM32F7xx_HAL_Driver/Src/stm32f7xx_hal_rcc.o
 .debug_loc     0x00002d9d      0x5fc Drivers/STM32F7xx_HAL_Driver/Src/stm32f7xx_hal_rcc_ex.o
 .debug_loc     0x00003399     0x1acd Drivers/STM32F7xx_HAL_Driver/Src/stm32f7xx_hal_spi.o
 .debug_loc     0x00004e66     0x1612 Drivers/STM32F7xx_HAL_Driver/Src/stm32f7xx_hal_uart.o
 .debug_loc     0x00006478     0x1b83 Drivers/STM32F7xx_HAL_Driver/Src/stm32f7xx_ll_usb.o
 .debug_loc     0x00007ffb      0x3ea Src/bmi088.o
 .debug_loc     0x000083e5      0x11e Src/bmi088_stm32.o
 .debug_loc     0x00008503     0x1362 Src/bmi08a.o
 .debug_loc     0x00009865      0xa5c Src/bmi08g.o
 .debug_loc     0x0000a2c1      0x1d0 Src/stm32f7xx_hal_msp.o
 .debug_loc     0x0000a491      0x13e Src/system_stm32f7xx.o

.debug_aranges  0x00000000      0xf18
 .debug_aranges
                0x00000000      0x110 Drivers/STM32F7xx_HAL_Driver/Src/stm32f7xx_hal.o
 .debug_aranges
                0x00000110       0xa8 Drivers/STM32F7xx_HAL_Driver/Src/stm32f7xx_hal_cortex.o
 .debug_aranges
                0x000001b8      0x110 Drivers/STM32F7xx_HAL_Driver/Src/stm32f7xx_hal_eth.o
 .debug_aranges
                0x000002c8       0x58 Drivers/STM32F7xx_HAL_Driver/Src/stm32f7xx_hal_gpio.o
 .debug_aranges
                0x00000320      0x120 Drivers/STM32F7xx_HAL_Driver/Src/stm32f7xx_hal_pcd.o
 .debug_aranges
                0x00000440       0x48 Drivers/STM32F7xx_HAL_Driver/Src/stm32f7xx_hal_pcd_ex.o
 .debug_aranges
                0x00000488       0xa0 Drivers/STM32F7xx_HAL_Driver/Src/stm32f7xx_hal_pwr.o
 .debug_aranges
                0x00000528       0x80 Drivers/STM32F7xx_HAL_Driver/Src/stm32f7xx_hal_pwr_ex.o
 .debug_aranges
                0x000005a8       0x88 Drivers/STM32F7xx_HAL_Driver/Src/stm32f7xx_hal_rcc.o
 .debug_aranges
                0x00000630       0x50 Drivers/STM32F7xx_HAL_Driver/Src/stm32f7xx_hal_rcc_ex.o
 .debug_aranges
                0x00000680      0x1d8 Drivers/STM32F7xx_HAL_Driver/Src/stm32f7xx_hal_spi.o
 .debug_aranges
                0x00000858      0x190 Drivers/STM32F7xx_HAL_Driver/Src/stm32f7xx_hal_uart.o
 .debug_aranges
                0x000009e8      0x190 Drivers/STM32F7xx_HAL_Driver/Src/stm32f7xx_ll_usb.o
 .debug_aranges
                0x00000b78       0x50 Src/bmi088.o
 .debug_aranges
                0x00000bc8       0x28 Src/bmi088_stm32.o
 .debug_aranges
                0x00000bf0      0x110 Src/bmi08a.o
 .debug_aranges
                0x00000d00       0xa0 Src/bmi08g.o
 .debug_aranges
                0x00000da0       0x58 Src/main.o
 .debug_aranges
                0x00000df8       0x60 Src/stm32f7xx_hal_msp.o
 .debug_aranges
                0x00000e58       0x70 Src/stm32f7xx_it.o
 .debug_aranges
                0x00000ec8       0x28 Src/system_stm32f7xx.o
 .debug_aranges
                0x00000ef0       0x28 startup/startup_stm32f767xx.o

.debug_ranges   0x00000000      0xe20
 .debug_ranges  0x00000000      0x100 Drivers/STM32F7xx_HAL_Driver/Src/stm32f7xx_hal.o
 .debug_ranges  0x00000100       0xf8 Drivers/STM32F7xx_HAL_Driver/Src/stm32f7xx_hal_cortex.o
 .debug_ranges  0x000001f8      0x100 Drivers/STM32F7xx_HAL_Driver/Src/stm32f7xx_hal_eth.o
 .debug_ranges  0x000002f8       0x48 Drivers/STM32F7xx_HAL_Driver/Src/stm32f7xx_hal_gpio.o
 .debug_ranges  0x00000340      0x110 Drivers/STM32F7xx_HAL_Driver/Src/stm32f7xx_hal_pcd.o
 .debug_ranges  0x00000450       0x38 Drivers/STM32F7xx_HAL_Driver/Src/stm32f7xx_hal_pcd_ex.o
 .debug_ranges  0x00000488       0x90 Drivers/STM32F7xx_HAL_Driver/Src/stm32f7xx_hal_pwr.o
 .debug_ranges  0x00000518       0x70 Drivers/STM32F7xx_HAL_Driver/Src/stm32f7xx_hal_pwr_ex.o
 .debug_ranges  0x00000588       0x78 Drivers/STM32F7xx_HAL_Driver/Src/stm32f7xx_hal_rcc.o
 .debug_ranges  0x00000600       0x40 Drivers/STM32F7xx_HAL_Driver/Src/stm32f7xx_hal_rcc_ex.o
 .debug_ranges  0x00000640      0x1c8 Drivers/STM32F7xx_HAL_Driver/Src/stm32f7xx_hal_spi.o
 .debug_ranges  0x00000808      0x180 Drivers/STM32F7xx_HAL_Driver/Src/stm32f7xx_hal_uart.o
 .debug_ranges  0x00000988      0x180 Drivers/STM32F7xx_HAL_Driver/Src/stm32f7xx_ll_usb.o
 .debug_ranges  0x00000b08       0x40 Src/bmi088.o
 .debug_ranges  0x00000b48       0x18 Src/bmi088_stm32.o
 .debug_ranges  0x00000b60      0x100 Src/bmi08a.o
 .debug_ranges  0x00000c60       0x90 Src/bmi08g.o
 .debug_ranges  0x00000cf0       0x48 Src/main.o
 .debug_ranges  0x00000d38       0x50 Src/stm32f7xx_hal_msp.o
 .debug_ranges  0x00000d88       0x60 Src/stm32f7xx_it.o
 .debug_ranges  0x00000de8       0x18 Src/system_stm32f7xx.o
 .debug_ranges  0x00000e00       0x20 startup/startup_stm32f767xx.o

.debug_macro    0x00000000    0x2938f
 .debug_macro   0x00000000      0x370 Drivers/STM32F7xx_HAL_Driver/Src/stm32f7xx_hal.o
 .debug_macro   0x00000370      0xa6c Drivers/STM32F7xx_HAL_Driver/Src/stm32f7xx_hal.o
 .debug_macro   0x00000ddc      0x19f Drivers/STM32F7xx_HAL_Driver/Src/stm32f7xx_hal.o
 .debug_macro   0x00000f7b       0x2e Drivers/STM32F7xx_HAL_Driver/Src/stm32f7xx_hal.o
 .debug_macro   0x00000fa9       0x3b Drivers/STM32F7xx_HAL_Driver/Src/stm32f7xx_hal.o
 .debug_macro   0x00000fe4       0x22 Drivers/STM32F7xx_HAL_Driver/Src/stm32f7xx_hal.o
 .debug_macro   0x00001006       0x87 Drivers/STM32F7xx_HAL_Driver/Src/stm32f7xx_hal.o
 .debug_macro   0x0000108d       0x51 Drivers/STM32F7xx_HAL_Driver/Src/stm32f7xx_hal.o
 .debug_macro   0x000010de       0xef Drivers/STM32F7xx_HAL_Driver/Src/stm32f7xx_hal.o
 .debug_macro   0x000011cd       0x6a Drivers/STM32F7xx_HAL_Driver/Src/stm32f7xx_hal.o
 .debug_macro   0x00001237      0x1df Drivers/STM32F7xx_HAL_Driver/Src/stm32f7xx_hal.o
 .debug_macro   0x00001416       0x35 Drivers/STM32F7xx_HAL_Driver/Src/stm32f7xx_hal.o
 .debug_macro   0x0000144b       0x50 Drivers/STM32F7xx_HAL_Driver/Src/stm32f7xx_hal.o
 .debug_macro   0x0000149b     0x1114 Drivers/STM32F7xx_HAL_Driver/Src/stm32f7xx_hal.o
 .debug_macro   0x000025af    0x19f38 Drivers/STM32F7xx_HAL_Driver/Src/stm32f7xx_hal.o
 .debug_macro   0x0001c4e7       0x43 Drivers/STM32F7xx_HAL_Driver/Src/stm32f7xx_hal.o
 .debug_macro   0x0001c52a     0x35cf Drivers/STM32F7xx_HAL_Driver/Src/stm32f7xx_hal.o
 .debug_macro   0x0001faf9       0x58 Drivers/STM32F7xx_HAL_Driver/Src/stm32f7xx_hal.o
 .debug_macro   0x0001fb51       0x17 Drivers/STM32F7xx_HAL_Driver/Src/stm32f7xx_hal.o
 .debug_macro   0x0001fb68       0x35 Drivers/STM32F7xx_HAL_Driver/Src/stm32f7xx_hal.o
 .debug_macro   0x0001fb9d       0x9c Drivers/STM32F7xx_HAL_Driver/Src/stm32f7xx_hal.o
 .debug_macro   0x0001fc39       0x16 Drivers/STM32F7xx_HAL_Driver/Src/stm32f7xx_hal.o
 .debug_macro   0x0001fc4f       0x97 Drivers/STM32F7xx_HAL_Driver/Src/stm32f7xx_hal.o
 .debug_macro   0x0001fce6      0x330 Drivers/STM32F7xx_HAL_Driver/Src/stm32f7xx_hal.o
 .debug_macro   0x00020016       0xfd Drivers/STM32F7xx_HAL_Driver/Src/stm32f7xx_hal.o
 .debug_macro   0x00020113       0x10 Drivers/STM32F7xx_HAL_Driver/Src/stm32f7xx_hal.o
 .debug_macro   0x00020123       0x58 Drivers/STM32F7xx_HAL_Driver/Src/stm32f7xx_hal.o
 .debug_macro   0x0002017b       0x1f Drivers/STM32F7xx_HAL_Driver/Src/stm32f7xx_hal.o
 .debug_macro   0x0002019a       0x43 Drivers/STM32F7xx_HAL_Driver/Src/stm32f7xx_hal.o
 .debug_macro   0x000201dd       0x20 Drivers/STM32F7xx_HAL_Driver/Src/stm32f7xx_hal.o
 .debug_macro   0x000201fd      0x18e Drivers/STM32F7xx_HAL_Driver/Src/stm32f7xx_hal.o
 .debug_macro   0x0002038b       0x10 Drivers/STM32F7xx_HAL_Driver/Src/stm32f7xx_hal.o
 .debug_macro   0x0002039b       0x1c Drivers/STM32F7xx_HAL_Driver/Src/stm32f7xx_hal.o
 .debug_macro   0x000203b7       0x52 Drivers/STM32F7xx_HAL_Driver/Src/stm32f7xx_hal.o
 .debug_macro   0x00020409       0x40 Drivers/STM32F7xx_HAL_Driver/Src/stm32f7xx_hal.o
 .debug_macro   0x00020449       0x10 Drivers/STM32F7xx_HAL_Driver/Src/stm32f7xx_hal.o
 .debug_macro   0x00020459       0x40 Drivers/STM32F7xx_HAL_Driver/Src/stm32f7xx_hal.o
 .debug_macro   0x00020499       0xd7 Drivers/STM32F7xx_HAL_Driver/Src/stm32f7xx_hal.o
 .debug_macro   0x00020570       0x1c Drivers/STM32F7xx_HAL_Driver/Src/stm32f7xx_hal.o
 .debug_macro   0x0002058c       0x3d Drivers/STM32F7xx_HAL_Driver/Src/stm32f7xx_hal.o
 .debug_macro   0x000205c9       0x16 Drivers/STM32F7xx_HAL_Driver/Src/stm32f7xx_hal.o
 .debug_macro   0x000205df      0x16f Drivers/STM32F7xx_HAL_Driver/Src/stm32f7xx_hal.o
 .debug_macro   0x0002074e       0x57 Drivers/STM32F7xx_HAL_Driver/Src/stm32f7xx_hal.o
 .debug_macro   0x000207a5     0x1add Drivers/STM32F7xx_HAL_Driver/Src/stm32f7xx_hal.o
 .debug_macro   0x00022282      0x6ca Drivers/STM32F7xx_HAL_Driver/Src/stm32f7xx_hal.o
 .debug_macro   0x0002294c      0x11e Drivers/STM32F7xx_HAL_Driver/Src/stm32f7xx_hal.o
 .debug_macro   0x00022a6a      0x277 Drivers/STM32F7xx_HAL_Driver/Src/stm32f7xx_hal.o
 .debug_macro   0x00022ce1       0x27 Drivers/STM32F7xx_HAL_Driver/Src/stm32f7xx_hal.o
 .debug_macro   0x00022d08      0x24f Drivers/STM32F7xx_HAL_Driver/Src/stm32f7xx_hal.o
 .debug_macro   0x00022f57       0x71 Drivers/STM32F7xx_HAL_Driver/Src/stm32f7xx_hal.o
 .debug_macro   0x00022fc8       0x58 Drivers/STM32F7xx_HAL_Driver/Src/stm32f7xx_hal.o
 .debug_macro   0x00023020      0x23a Drivers/STM32F7xx_HAL_Driver/Src/stm32f7xx_hal.o
 .debug_macro   0x0002325a      0xcd5 Drivers/STM32F7xx_HAL_Driver/Src/stm32f7xx_hal.o
 .debug_macro   0x00023f2f      0x156 Drivers/STM32F7xx_HAL_Driver/Src/stm32f7xx_hal.o
 .debug_macro   0x00024085      0x3de Drivers/STM32F7xx_HAL_Driver/Src/stm32f7xx_hal.o
 .debug_macro   0x00024463       0x12 Drivers/STM32F7xx_HAL_Driver/Src/stm32f7xx_hal.o
 .debug_macro   0x00024475      0x209 Drivers/STM32F7xx_HAL_Driver/Src/stm32f7xx_hal.o
 .debug_macro   0x0002467e       0x61 Drivers/STM32F7xx_HAL_Driver/Src/stm32f7xx_hal.o
 .debug_macro   0x000246df       0x90 Drivers/STM32F7xx_HAL_Driver/Src/stm32f7xx_hal.o
 .debug_macro   0x0002476f      0x132 Drivers/STM32F7xx_HAL_Driver/Src/stm32f7xx_hal.o
 .debug_macro   0x000248a1      0x10c Drivers/STM32F7xx_HAL_Driver/Src/stm32f7xx_hal.o
 .debug_macro   0x000249ad       0x35 Drivers/STM32F7xx_HAL_Driver/Src/stm32f7xx_hal.o
 .debug_macro   0x000249e2      0x2e2 Drivers/STM32F7xx_HAL_Driver/Src/stm32f7xx_hal.o
 .debug_macro   0x00024cc4      0x4e8 Drivers/STM32F7xx_HAL_Driver/Src/stm32f7xx_hal.o
 .debug_macro   0x000251ac       0x47 Drivers/STM32F7xx_HAL_Driver/Src/stm32f7xx_hal.o
 .debug_macro   0x000251f3      0x1f4 Drivers/STM32F7xx_HAL_Driver/Src/stm32f7xx_hal.o
 .debug_macro   0x000253e7       0xfe Drivers/STM32F7xx_HAL_Driver/Src/stm32f7xx_hal.o
 .debug_macro   0x000254e5      0x16c Drivers/STM32F7xx_HAL_Driver/Src/stm32f7xx_hal.o
 .debug_macro   0x00025651      0x34c Drivers/STM32F7xx_HAL_Driver/Src/stm32f7xx_hal_cortex.o
 .debug_macro   0x0002599d      0x35e Drivers/STM32F7xx_HAL_Driver/Src/stm32f7xx_hal_eth.o
 .debug_macro   0x00025cfb      0x384 Drivers/STM32F7xx_HAL_Driver/Src/stm32f7xx_hal_gpio.o
 .debug_macro   0x0002607f      0x36a Drivers/STM32F7xx_HAL_Driver/Src/stm32f7xx_hal_pcd.o
 .debug_macro   0x000263e9      0x34c Drivers/STM32F7xx_HAL_Driver/Src/stm32f7xx_hal_pcd_ex.o
 .debug_macro   0x00026735      0x36a Drivers/STM32F7xx_HAL_Driver/Src/stm32f7xx_hal_pwr.o
 .debug_macro   0x00026a9f      0x364 Drivers/STM32F7xx_HAL_Driver/Src/stm32f7xx_hal_pwr_ex.o
 .debug_macro   0x00026e03      0x370 Drivers/STM32F7xx_HAL_Driver/Src/stm32f7xx_hal_rcc.o
 .debug_macro   0x00027173      0x34c Drivers/STM32F7xx_HAL_Driver/Src/stm32f7xx_hal_rcc_ex.o
 .debug_macro   0x000274bf      0x354 Drivers/STM32F7xx_HAL_Driver/Src/stm32f7xx_hal_spi.o
 .debug_macro   0x00027813      0x354 Drivers/STM32F7xx_HAL_Driver/Src/stm32f7xx_hal_uart.o
 .debug_macro   0x00027b67      0x34c Drivers/STM32F7xx_HAL_Driver/Src/stm32f7xx_ll_usb.o
 .debug_macro   0x00027eb3       0x98 Src/bmi088.o
 .debug_macro   0x00027f4b      0x37a Src/bmi088_stm32.o
 .debug_macro   0x000282c5       0x3b Src/bmi088_stm32.o
 .debug_macro   0x00028300       0x35 Src/bmi088_stm32.o
 .debug_macro   0x00028335       0x94 Src/bmi08a.o
 .debug_macro   0x000283c9       0x8e Src/bmi08g.o
 .debug_macro   0x00028457      0x38f Src/main.o
 .debug_macro   0x000287e6      0x15d Src/main.o
 .debug_macro   0x00028943      0x35b Src/stm32f7xx_hal_msp.o
 .debug_macro   0x00028c9e      0x39f Src/stm32f7xx_it.o
 .debug_macro   0x0002903d      0x352 Src/system_stm32f7xx.o

.debug_line     0x00000000     0xdcd5
 .debug_line    0x00000000      0xa64 Drivers/STM32F7xx_HAL_Driver/Src/stm32f7xx_hal.o
 .debug_line    0x00000a64      0xa59 Drivers/STM32F7xx_HAL_Driver/Src/stm32f7xx_hal_cortex.o
 .debug_line    0x000014bd      0xea8 Drivers/STM32F7xx_HAL_Driver/Src/stm32f7xx_hal_eth.o
 .debug_line    0x00002365      0x9a9 Drivers/STM32F7xx_HAL_Driver/Src/stm32f7xx_hal_gpio.o
 .debug_line    0x00002d0e      0xd93 Drivers/STM32F7xx_HAL_Driver/Src/stm32f7xx_hal_pcd.o
 .debug_line    0x00003aa1      0x8aa Drivers/STM32F7xx_HAL_Driver/Src/stm32f7xx_hal_pcd_ex.o
 .debug_line    0x0000434b      0x9ae Drivers/STM32F7xx_HAL_Driver/Src/stm32f7xx_hal_pwr.o
 .debug_line    0x00004cf9      0x966 Drivers/STM32F7xx_HAL_Driver/Src/stm32f7xx_hal_pwr_ex.o
 .debug_line    0x0000565f      0xae2 Drivers/STM32F7xx_HAL_Driver/Src/stm32f7xx_hal_rcc.o
 .debug_line    0x00006141      0xa62 Drivers/STM32F7xx_HAL_Driver/Src/stm32f7xx_hal_rcc_ex.o
 .debug_line    0x00006ba3     0x12ae Drivers/STM32F7xx_HAL_Driver/Src/stm32f7xx_hal_spi.o
 .debug_line    0x00007e51     0x11d5 Drivers/STM32F7xx_HAL_Driver/Src/stm32f7xx_hal_uart.o
 .debug_line    0x00009026      0xe95 Drivers/STM32F7xx_HAL_Driver/Src/stm32f7xx_ll_usb.o
 .debug_line    0x00009ebb      0x40c Src/bmi088.o
 .debug_line    0x0000a2c7      0x879 Src/bmi088_stm32.o
 .debug_line    0x0000ab40      0x7b5 Src/bmi08a.o
 .debug_line    0x0000b2f5      0x544 Src/bmi08g.o
 .debug_line    0x0000b839      0x984 Src/main.o
 .debug_line    0x0000c1bd      0x92a Src/stm32f7xx_hal_msp.o
 .debug_line    0x0000cae7      0x92c Src/stm32f7xx_it.o
 .debug_line    0x0000d413      0x843 Src/system_stm32f7xx.o
 .debug_line    0x0000dc56       0x7f startup/startup_stm32f767xx.o

.debug_str      0x00000000    0xf8e97
 .debug_str     0x00000000    0xf1772 Drivers/STM32F7xx_HAL_Driver/Src/stm32f7xx_hal.o
                              0xf1b7b (size before relaxing)
 .debug_str     0x000f1772      0x468 Drivers/STM32F7xx_HAL_Driver/Src/stm32f7xx_hal_cortex.o
                              0xf1b1e (size before relaxing)
 .debug_str     0x000f1bda      0xbda Drivers/STM32F7xx_HAL_Driver/Src/stm32f7xx_hal_eth.o
                              0xf1c6f (size before relaxing)
 .debug_str     0x000f27b4      0x2b2 Drivers/STM32F7xx_HAL_Driver/Src/stm32f7xx_hal_gpio.o
                              0xf130f (size before relaxing)
 .debug_str     0x000f2a66      0xb2d Drivers/STM32F7xx_HAL_Driver/Src/stm32f7xx_hal_pcd.o
                              0xf1ac0 (size before relaxing)
 .debug_str     0x000f3593      0x140 Drivers/STM32F7xx_HAL_Driver/Src/stm32f7xx_hal_pcd_ex.o
                              0xf1441 (size before relaxing)
 .debug_str     0x000f36d3      0x2ed Drivers/STM32F7xx_HAL_Driver/Src/stm32f7xx_hal_pwr.o
                              0xf1403 (size before relaxing)
 .debug_str     0x000f39c0      0x1b5 Drivers/STM32F7xx_HAL_Driver/Src/stm32f7xx_hal_pwr_ex.o
                              0xf13cb (size before relaxing)
 .debug_str     0x000f3b75      0x38f Drivers/STM32F7xx_HAL_Driver/Src/stm32f7xx_hal_rcc.o
                              0xf1489 (size before relaxing)
 .debug_str     0x000f3f04      0x3c1 Drivers/STM32F7xx_HAL_Driver/Src/stm32f7xx_hal_rcc_ex.o
                              0xf142e (size before relaxing)
 .debug_str     0x000f42c5      0x94f Drivers/STM32F7xx_HAL_Driver/Src/stm32f7xx_hal_spi.o
                              0xf18e4 (size before relaxing)
 .debug_str     0x000f4c14      0x7d1 Drivers/STM32F7xx_HAL_Driver/Src/stm32f7xx_hal_uart.o
                              0xf1b7d (size before relaxing)
 .debug_str     0x000f53e5      0x406 Drivers/STM32F7xx_HAL_Driver/Src/stm32f7xx_ll_usb.o
                              0xf1932 (size before relaxing)
 .debug_str     0x000f57eb     0x2a59 Src/bmi088.o
                               0x6a27 (size before relaxing)
 .debug_str     0x000f8244       0x42 Src/bmi088_stm32.o
                              0xf3923 (size before relaxing)
 .debug_str     0x000f8286      0x35c Src/bmi08a.o
                               0x6b7a (size before relaxing)
 .debug_str     0x000f85e2       0xee Src/bmi08g.o
                               0x6880 (size before relaxing)
 .debug_str     0x000f86d0      0x639 Src/main.o
                              0xf593f (size before relaxing)
 .debug_str     0x000f8d09       0x1b Src/stm32f7xx_hal_msp.o
                              0xf2457 (size before relaxing)
 .debug_str     0x000f8d24       0xe9 Src/stm32f7xx_it.o
                              0xf3c33 (size before relaxing)
 .debug_str     0x000f8e0d       0x5a Src/system_stm32f7xx.o
                              0xf1134 (size before relaxing)
 .debug_str     0x000f8e67       0x30 startup/startup_stm32f767xx.o
                                 0x5d (size before relaxing)

.comment        0x00000000       0x7e
 .comment       0x00000000       0x7e Drivers/STM32F7xx_HAL_Driver/Src/stm32f7xx_hal.o
                                 0x7f (size before relaxing)
 .comment       0x0000007e       0x7f Drivers/STM32F7xx_HAL_Driver/Src/stm32f7xx_hal_cortex.o
 .comment       0x0000007e       0x7f Drivers/STM32F7xx_HAL_Driver/Src/stm32f7xx_hal_eth.o
 .comment       0x0000007e       0x7f Drivers/STM32F7xx_HAL_Driver/Src/stm32f7xx_hal_gpio.o
 .comment       0x0000007e       0x7f Drivers/STM32F7xx_HAL_Driver/Src/stm32f7xx_hal_pcd.o
 .comment       0x0000007e       0x7f Drivers/STM32F7xx_HAL_Driver/Src/stm32f7xx_hal_pcd_ex.o
 .comment       0x0000007e       0x7f Drivers/STM32F7xx_HAL_Driver/Src/stm32f7xx_hal_pwr.o
 .comment       0x0000007e       0x7f Drivers/STM32F7xx_HAL_Driver/Src/stm32f7xx_hal_pwr_ex.o
 .comment       0x0000007e       0x7f Drivers/STM32F7xx_HAL_Driver/Src/stm32f7xx_hal_rcc.o
 .comment       0x0000007e       0x7f Drivers/STM32F7xx_HAL_Driver/Src/stm32f7xx_hal_rcc_ex.o
 .comment       0x0000007e       0x7f Drivers/STM32F7xx_HAL_Driver/Src/stm32f7xx_hal_spi.o
 .comment       0x0000007e       0x7f Drivers/STM32F7xx_HAL_Driver/Src/stm32f7xx_hal_uart.o
 .comment       0x0000007e       0x7f Drivers/STM32F7xx_HAL_Driver/Src/stm32f7xx_ll_usb.o
 .comment       0x0000007e       0x7f Src/bmi088.o
 .comment       0x0000007e       0x7f Src/bmi088_stm32.o
 .comment       0x0000007e       0x7f Src/bmi08a.o
 .comment       0x0000007e       0x7f Src/bmi08g.o
 .comment       0x0000007e       0x7f Src/main.o
 .comment       0x0000007e       0x7f Src/stm32f7xx_hal_msp.o
 .comment       0x0000007e       0x7f Src/stm32f7xx_it.o
 .comment       0x0000007e       0x7f Src/system_stm32f7xx.o

.debug_frame    0x00000000     0x29e8
 .debug_frame   0x00000000      0x22c Drivers/STM32F7xx_HAL_Driver/Src/stm32f7xx_hal.o
 .debug_frame   0x0000022c      0x15c Drivers/STM32F7xx_HAL_Driver/Src/stm32f7xx_hal_cortex.o
 .debug_frame   0x00000388      0x348 Drivers/STM32F7xx_HAL_Driver/Src/stm32f7xx_hal_eth.o
 .debug_frame   0x000006d0       0xd8 Drivers/STM32F7xx_HAL_Driver/Src/stm32f7xx_hal_gpio.o
 .debug_frame   0x000007a8      0x328 Drivers/STM32F7xx_HAL_Driver/Src/stm32f7xx_hal_pcd.o
 .debug_frame   0x00000ad0       0x7c Drivers/STM32F7xx_HAL_Driver/Src/stm32f7xx_hal_pcd_ex.o
 .debug_frame   0x00000b4c      0x134 Drivers/STM32F7xx_HAL_Driver/Src/stm32f7xx_hal_pwr.o
 .debug_frame   0x00000c80      0x134 Drivers/STM32F7xx_HAL_Driver/Src/stm32f7xx_hal_pwr_ex.o
 .debug_frame   0x00000db4      0x190 Drivers/STM32F7xx_HAL_Driver/Src/stm32f7xx_hal_rcc.o
 .debug_frame   0x00000f44       0xcc Drivers/STM32F7xx_HAL_Driver/Src/stm32f7xx_hal_rcc_ex.o
 .debug_frame   0x00001010      0x5b0 Drivers/STM32F7xx_HAL_Driver/Src/stm32f7xx_hal_spi.o
 .debug_frame   0x000015c0      0x458 Drivers/STM32F7xx_HAL_Driver/Src/stm32f7xx_hal_uart.o
 .debug_frame   0x00001a18      0x488 Drivers/STM32F7xx_HAL_Driver/Src/stm32f7xx_ll_usb.o
 .debug_frame   0x00001ea0       0xd4 Src/bmi088.o
 .debug_frame   0x00001f74       0x5c Src/bmi088_stm32.o
 .debug_frame   0x00001fd0      0x428 Src/bmi08a.o
 .debug_frame   0x000023f8      0x230 Src/bmi08g.o
 .debug_frame   0x00002628       0xe8 Src/main.o
 .debug_frame   0x00002710      0x118 Src/stm32f7xx_hal_msp.o
 .debug_frame   0x00002828       0xd8 Src/stm32f7xx_it.o
 .debug_frame   0x00002900       0x3c Src/system_stm32f7xx.o
 .debug_frame   0x0000293c       0x2c c:/ac6/systemworkbench/plugins/fr.ac6.mcu.externaltools.arm-none.win32_1.16.0.201807130628/tools/compiler/bin/../lib/gcc/arm-none-eabi/7.2.1/thumb/v7e-m/fpv5/hard\libgcc.a(_aeabi_uldivmod.o)
 .debug_frame   0x00002968       0x34 c:/ac6/systemworkbench/plugins/fr.ac6.mcu.externaltools.arm-none.win32_1.16.0.201807130628/tools/compiler/bin/../lib/gcc/arm-none-eabi/7.2.1/thumb/v7e-m/fpv5/hard\libgcc.a(_udivmoddi4.o)
 .debug_frame   0x0000299c       0x2c c:/ac6/systemworkbench/plugins/fr.ac6.mcu.externaltools.arm-none.win32_1.16.0.201807130628/tools/compiler/bin/../lib/gcc/arm-none-eabi/7.2.1/../../../../arm-none-eabi/lib/thumb/v7e-m/fpv5/hard\libc_nano.a(lib_a-init.o)
 .debug_frame   0x000029c8       0x20 c:/ac6/systemworkbench/plugins/fr.ac6.mcu.externaltools.arm-none.win32_1.16.0.201807130628/tools/compiler/bin/../lib/gcc/arm-none-eabi/7.2.1/../../../../arm-none-eabi/lib/thumb/v7e-m/fpv5/hard\libc_nano.a(lib_a-memset.o)
